:0400000061EF00F0BC
:10000800FACF8FF0FBCF90F0E9CF91F0EAEF0FF045
:10001800D8CF1FF0E8CF20F0E0CF21F0FACF22F0C0
:10002800FBCF23F0E9CF24F0EACF25F0E1CF26F08B
:10003800E2CF27F0D9CF28F0DACF29F0F3CF2AF092
:10004800F4CF2BF0F6CF2CF0F7CF2DF0F8CF2EF021
:10005800F5CF2FF09EA001D001D004D09E9006ECE1
:1000680013F000D09EAA01D001D004D09E9AF7ECDC
:100078000DF000D02FC0F5FF2EC0F8FF2DC0F7FF00
:100088002CC0F6FF2BC0F4FF2AC0F3FF29C0DAFF0B
:1000980028C0D9FF27C0E2FF26C0E1FF25C0EAFF3C
:1000A80024C0E9FF23C0FBFF22C0FAFF21C0E0FF04
:1000B80020C0E8FF1FC0D8FF1000F6EF13F00001C2
:1000C8007A6F000E00010001846F00017A5100016F
:1000D8007A6F000E000100017F6F00017A51000164
:1000E8007A6F000E00010001836F00017A51000150
:1000F8007A6F000E00010001826F00017A51000141
:100108007A6F000E00010001806F00017A51C6ACC1
:1001180001D001D02AD0C69C000120EE0CF00001CD
:10012800D451D9260001D551DA22050EDF6E00011F
:100138007A6F010E00010001806F00017A51000101
:1001480020EE0EF00001D451D9260001D551DA2253
:10015800DF2A000120EE0DF00001D451D92600015C
:10016800D551DA22040EDF6E00D0C7A001D001D02D
:100178000BD0C9CF81F000017A6F010E0001000198
:10018800846F00017A5100D000010001806701D01E
:1001980001D051D239D238D2C7A601D001D04BD222
:1001A80084C060F000012FEC0DF0000120EE0CF08F
:1001B8000001D451D9260001D551DA22080EDF6298
:1001C80001D001D038D200017A6F000E0001000181
:1001D800846F00017A5100017A6F010E000100015D
:1001E800826F00017A5127D226D225D2C7A801D022
:1001F80001D040D0000120EE0BF00001D451D926E7
:100208000001D551DA22DF2A000100018451D8B457
:1002180001D001D023D0C7BA01D001D009D0000144
:100228007A6F010E00010001836F00017A5116D028
:10023800000120EE0EF00001D451D9260001D5515D
:10024800DA22DF2A000120EE0DF00001D451D92670
:100258000001D551DA22060EDF6E00D0000120EE33
:100268000CF00001D451D9260001D551DA22050E2F
:10027800DF6EE1D1000100018451D8B401D001D072
:10028800DAD1000120EE0BF00001D451D92600018B
:10029800D551DA22DF2AC7BA01D001D02DD0C7B490
:1002A80001D001D00CD0000120EE0CF00001D45197
:1002B800D9260001D551DA22070EDF6EBCD1000124
:1002C80020EE0CF00001D451D9260001D551DA22D4
:1002D800080EDF6E00017A6F010E00010001826FC7
:1002E80000017A5100017A6F000E00010001846F4D
:1002F80000017A51A0D19FD1000120EE0EF000013B
:10030800D451D9260001D551DA22DF2A000120EE86
:100318000CF00001D451D9260001D551DA22050E7E
:10032800DF6E000120EE0DF00001D451D926000146
:10033800D551DA22060EDF6E7ED17DD17CD17BD1FC
:10034800000120EE1AF00001D451D9260001D55140
:10035800DA22DF5000017A6F000120EE19F0000167
:10036800D451D9260001D551DA22DF5000017A5D37
:10037800D8B001D001D032D0000120EE1AF000012F
:10038800D451D9260001D551DA22DF5000017A6F05
:1003980000017A51010D0F0EF326000EF422F350DE
:1003A80000010001D425D96EF45000010001D521C7
:1003B800DA6EDF50C96E000120EE1AF00001D45148
:1003C800D9260001D551DA22DF2A00017A6F010E01
:1003D800000100017F6F00017A512DD1000120EE4C
:1003E8000CF00001D451D9260001D551DA22050EAE
:1003F800DF6E21D120D1C7A801D001D07BD0000168
:1004080020EE0BF00001D451D9260001D551DA2293
:10041800DF2A000100018451D8B401D001D055D0A1
:10042800C7AA01D001D02FD0000120EE0AF00001A8
:10043800D451D9260001D551DA22DF5000017A6F54
:1004480000017A51010DF35000010001D425D96E45
:10045800F45000010001D521DA6E000181C0DFFFF0
:10046800000120EE0AF00001D451D9260001D5512F
:10047800DA22DF2A00017A6F010E00010001836F82
:1004880000017A512BD0000120EE0EF00001D4516A
:10049800D9260001D551DA22DF2A000120EE0DF01D
:1004A8000001D451D9260001D551DA22060EDF6E9B
:1004B800000120EE0CF00001D451D9260001D551DD
:1004C800DA22050EDF6E0AD009D000017A6F010E1C
:1004D80000010001836F00017A5100D0000120EE75
:1004E8000CF00001D451D9260001D551DA22050EAD
:1004F800DF6EA1D0000100018451D8B401D001D031
:100508009AD0000120EE0BF00001D451D926000149
:10051800D551DA22DF2AC7AA01D001D027D000019D
:1005280020EE0AF00001D451D9260001D551DA2273
:10053800DF5000017A6F00017A51010DF35000017C
:100548000001D425D96EF45000010001D521DA6EDE
:10055800000181C0DFFF000120EE0AF00001D45144
:10056800D9260001D551DA22DF2A65D0C7A401D0E7
:1005780001D024D0000120EE0CF00001D451D9267E
:100588000001D551DA22080EDF6E00017A6F010EE4
:1005980000010001836F00017A5100017A6F010E9A
:1005A80000010001826F00017A5100017A6F000E8C
:1005B80000010001846F00017A513DD0000120EE56
:1005C8000EF00001D451D9260001D551DA22DF2AD4
:1005D800000120EE0DF00001D451D9260001D551BB
:1005E800DA22060EDF6E000120EE0CF00001D45175
:1005F800D9260001D551DA22050EDF6E1CD01BD09A
:100608001AD019D018D017D0000120EE0CF0000134
:10061800D451D9260001D551DA22DF50050AD8B4C1
:10062800BBD5030AD8B4E2D5010AD8B4E4D60F0A78
:10063800D8B486D600D000010001846701D001D06B
:1006480007D0000100017F51D8B401D001D007D0F4
:10065800C6B801D001D003D0C68801D000D00001AF
:1006680020EE0AF00001D451D9260001D551DA2232
:10067800080EDF6401D001D027D000010001836794
:1006880001D001D021D0000120EE0CF00001D4519E
:10069800D9260001D551DA22050EDF6E000120EEC1
:1006A8000EF00001D451D9260001D551DA22DF2AF3
:1006B800000120EE0DF00001D451D9260001D551DA
:1006C800DA22070EDF6E00D0000100018351D8B492
:1006D80001D001D050D0000120EE0BF00001D45120
:1006E800D9260001D551DA22000110EE0AF00001E6
:1006F800D451E1260001D551E222E75000017A6F7A
:1007080000017A51010DF35000010001D425E16E7A
:10071800F45000010001D521E26EDFCFE7FF0001B0
:1007280020EE0AF00001D451D9260001D551DA2271
:10073800DF5000017A6F00017A2900010001766F0D
:1007480000017B6F280E00010001776F00017B51CB
:10075800D4C078F0D5C079F000017FEC13F0000127
:1007680020EE0AF00001D451D9260001D551DA2231
:10077800000EDF6E5ED0000120EE0EF00001D451B5
:10078800D9260001D551DA22DF50D8B401D001D0E2
:1007980050D0000120EE0EF00001D451D9260001FE
:1007A800D551DA22DF50000100017C6F000120EEF4
:1007B8000DF00001D451D9260001D551DA22DF50BD
:1007C800000100017D6F000120EE0BF00001D45103
:1007D800D9260001D551DA22DF50000100017E6FD1
:1007E80000017A6F030E00010001766F00017A5153
:1007F80000017B6F290E00010001776F00017B511A
:100808000001000E00010001796F00017C0E00015B
:10081800786F00017FEC13F0000120EE0EF000016C
:10082800D451D9260001D551DA22000EDF6E01D04D
:1008380000D0000100018251D8B401D001D020D0ED
:1008480000017A6F000E00010001766F00017A51F5
:1008580000017B6F2A0E00010001776F00017B51B8
:10086800D4C078F0D5C079F000017FEC13F0000116
:100878007A6F000E00010001826F00017A5100D0EA
:100888001200E00ED36E9B8C0201020E01010101E1
:10089800A36F0201160E0101A26F010106EC14F00C
:1008A8000201020E01010101A36F02011D0E0101E7
:1008B800A26F010133EC11F00201020E01010101E6
:1008C800A36F0201140E0101A26F010131EC14F0B3
:1008D800FAEC10F00101C76F960E01010101A26F39
:1008E8000101C7510101ABEC13F00101C76F9B0E69
:1008F80001010101A26F0101C7510101C86F000E7A
:1009080001010101A36F0101C85101018FEC12F02F
:100918009F909F9A9F860101C76F9E0E010101015A
:10092800A26F0101C7510101D2EC13F09D860101AC
:10093800C76F6C0E01010101A26F0101C751000EC2
:1009480001010101A46F190E0101A36F01019EECC1
:100958000FF05AEC14F0C0EC13F000D09CEC0DF042
:100968000101C76F0A0E01010101BA6F0101C751E8
:100978000201020E01010101BC6F02011B0E0101FF
:10098800BB6F0201020E01010101BE6F0201060EDA
:100998000101BD6F010121EC13F0020102011C6F7E
:1009A800020102011CAF01D001D08AD09AD099D09F
:1009B80098D086D00201020E01010101A36F020145
:1009C800040E0101A26F020101011BC2A4F1010181
:1009D8000101A56B020102011C5101010101A66F71
:1009E8000101A76B0101A6BFA7070201020E0101C1
:1009F8000101A96F0201060E0101A86F010155EC62
:100A080014F06FD006C213F26CD03CD00101C76F4E
:100A1800020E020102011C6F0101C7510101C76FDB
:100A2800550E02010201066F0101C7510101C76F8E
:100A3800AA0E02010201076F0101C75130D001015E
:100A4800C76F010E020102011C6F0101C7510101AC
:100A5800C76F3A0E02010201066F0101C7511FD08C
:100A68000101C76F010E020102011C6F0101C7518C
:100A78000101C76FA30E02010201066F0101C751F0
:100A88000ED00DD0020102011351A80AD8B4D7D74D
:100A9800010AD8B4E5D7030AD8B4B8D700D01CC225
:100AA800A2F10201020E01010101A46F0201060E6A
:100AB8000101A36F01012AEC0BF013D012D011D061
:100AC800020102011B510A0AD8B474D7220AD8B409
:100AD80099D7010AD8B496D7030AD8B4D3D701D086
:100AE80000D00101C76F0A0E01010101BA6F0101AF
:100AF800C7510201020E01010101BC6F02011B0E68
:100B08000101BB6F0201020E01010101BE6F02016A
:100B1800060E0101BD6F010139EC13F0020102015B
:100B28001C6F020102011CAF01D001D072D016D790
:100B380015D714D76ED00201020E01010101BD6F55
:100B48000201140E0101BC6F020101011BC2BEF1BA
:100B580001010101BF6B020102011C5101010101E8
:100B6800C06F0101C16B0101C0BFC1070201020EC4
:100B780001010101C36F0201060E0101C26F0101EB
:100B880036EC10F0EBD6020102010651020107C251
:100B9800C7F10101C86BC7C1C8F10101C76B0101E9
:100BA800C71102010201116F0101C8510201126F40
:100BB80011C200F212C201F2C28201D000D00201B9
:100BC800020E01010101A36F0201020E0101A26FD1
:100BD800020101011BC2A4F101010101A56B02017F
:100BE80002011C5101010101A66F0101A76B01015E
:100BF800A6BFA7070201020E01010101A96F0201A8
:100C0800060E0101A86F010144EC12F0A7D6A6D682
:100C1800A5D6020102011B510B0AD8B48CD7150ABC
:100C2800D8B4CDD7010AD8B4CAD72D0AD8B4ABD70F
:100C380095D694D693D692D661EF00F00F0E0001A8
:100C48006E6F000168C06FF0000169C070F00001AC
:100C58006AC071F000016E290001726F05D00001B1
:100C6800D890713370336F330001722FF8D70001B9
:100C78006F5100010001736F0001736701D001D04B
:100C88000ED0000E00010001686F000E0001000187
:100C9800696F000E000100016A6FE4D0E3D00F0E07
:100CA80000016E6F00016BC06FF000016CC070F046
:100CB80000016DC071F000016E290001726F05D04E
:100CC8000001D890713370336F330001722FF8D759
:100CD80000016F5100010001786F0001786701D0B1
:100CE80001D00ED0000E00010001686F000E000157
:100CF8000001696F000E000100016A6FB3D0B2D025
:100D08000001000178517B0F0001000173276AC0C0
:100D180078F000016D5100010001781B800E000180
:100D28000001781700010001698F000100016C8F34
:100D3800FF0E000100016B17FF0E000100016C1788
:100D4800000E000100016D17000E00010001746F14
:100D5800000E00010001756F000E00010001766FA2
:100D680000016E6F070E00010001776F00016E51E0
:100D780000D00001000168A101D001D013D000010A
:100D880000016B51000100017427000100016C5142
:100D9800000100017523000100016D5100010001EF
:100DA800762300D00001D89000016A33000169332E
:100DB800000168330001D89000016B3700016C37DF
:100DC80000016D3700010001772FD3D700D0000153
:100DD8006E6F090E00010001776F00016E5100D09F
:100DE8000001000168A101D001D013D00001000169
:100DF8006B51000100017427000100016C510001D2
:100E080000017523000100016D51000100017623E6
:100E180000D00001D89000016A3300016933000155
:100E280068330001D8900001763300017533000162
:100E3800743300010001772FD3D700D074C060F05D
:100E480075C061F076C062F073C063F078C064F07A
:100E5800000124EC09F060C068F061C069F062C06C
:100E68006AF000D012000F0E00016E6F000168C01A
:100E78006FF0000169C070F000016AC071F00001F4
:100E88006E290001726F05D00001D890713370335C
:100E98006F330001722FF8D700016F510001000174
:100EA800776F0001776701D001D00ED0000E0001E6
:100EB8000001686F000E00010001696F000E00015B
:100EC80000016A6FCAD0C9D00F0E00016E6F000111
:100ED8006BC06FF000016CC070F000016DC071F064
:100EE80000016E290001726F05D00001D89071339E
:100EF80070336F330001722FF8D700016F51000172
:100F08000001786F0001786701D001D00ED0000E83
:100F180000010001686F000E00010001696F000EFA
:100F2800000100016A6F99D098D0000E00010001FD
:100F3800746F000E00010001756F000E00010001C2
:100F4800766F000100017851890F00010001775F79
:100F58006AC078F000016D5100010001781B800E15
:100F680000010001781700010001698FFF0E0001E0
:100F780000016817FF0E000100016917000E00014B
:100F880000016A17000100016C8FFF0E00010001CB
:100F98006B17FF0E000100016C17000E0001000125
:100FA8006D1700016E6F180E00010001736F0001CC
:100FB8006E510001D89000017437000175370001A7
:100FC8007637000100016B5100010001685D0001E6
:100FD80000016C51000100016959000100016D51C7
:100FE800000100016A59D8A001D001D015D0000134
:100FF80000016B5100010001685F000100016C51A4
:1010080000010001695B000100016D510001000150
:101018006A5B0001000174810001D8900001683703
:101028000001693700016A3700010001732FC1D739
:1010380000D074C060F075C061F076C062F077C00F
:1010480063F078C064F0000124EC09F060C068F037
:1010580061C069F062C06AF000D012000F0E000192
:101068007D6F000179C07EF000017AC07FF0000139
:101078007BC080F000017D290001816F05D000014F
:10108800D89080337F337E330001812FF8D7000159
:101098007E5100010001876F0001876701D001D0F0
:1010A8000FD0000E00010001796F000E00017A6F69
:1010B800000E00017B6F000E00017C6FC0D0BFD016
:1010C800170E00017D6F000179C07EF000017AC023
:1010D8007FF000017BC080F000017D290001816F55
:1010E80005D00001D89080337F337E330001812FF3
:1010F800F8D700017E5100010001826F0001000154
:101108007A8FFF0E000100017917FF0E0001000120
:101118007A17000E000100017B17000100017951C8
:1011280000010001836F000100017A510001846F02
:1011380000017B510001856F0001866B8E0E000156
:101148000001875F0001000187AF01D001D029D0DD
:10115800000100018751800A8F0FD8B001D001D05B
:1011680010D0000E00010001796F000E00017A6FA7
:10117800000E00017B6F000E00017C6F60D05FD015
:1011880000D00001D89000018633000185330001AA
:1011980084330001833300010001873FF2D72ED04A
:1011A8002DD0170E00010001876501D001D01ED097
:1011B800000E00010001796F000E00017A6F000E29
:1011C80000017B6F000E00017C6F39D038D00ED043
:1011D8000001D8900001833700018437000185376A
:1011E8000001863700010001870700D000010001D7
:1011F800876701D001D0ECD701D000D000010001F1
:101208008251D8B401D001D011D000010001861F4D
:101218000001851F0001841F0001836D000E00017D
:101228008423000185230001862300D083C079F040
:1012380084C07AF085C07BF086C07CF000D01200B4
:10124800000100016351D8B401D001D00CD00001D5
:10125800000160510001611100016211D8A401D0A0
:1012680001D01CD000D0000E00010001606F000EFC
:1012780000010001616F000E00010001626FA5D03E
:10128800A4D00CD000010001632B0001D89000010C
:101298006233000161330001603300D0000E0001A9
:1012A800000160150001656F000E00010001611565
:1012B8000001666FFE0E0001000162150001676FF4
:1012C8000001655166116711D8A401D001D0DAD7A1
:1012D80019D018D000010001632B010E0001000194
:1012E8006027000E000100016123000E00010001CB
:1012F80062230001D89000016233000161330001CC
:10130800603300D0000E0001000160150001656F18
:10131800000E0001000161150001666FFF0E00015B
:10132800000162150001676F0001655166116711C0
:10133800D8A401D001D0CED70DD00CD00001000127
:1013480063070001D8900001603700016137000190
:10135800623700D00001000161AF01D001D0EED7A3
:101368000001000163B101D001D004D000010001E7
:10137800619F00D00001D8906333000100016351E0
:101388000001676F666B656B000165510001000124
:1013980060130001665100010001611300016751EB
:1013A800000100016213000100016451D8B401D0AA
:1013B80001D004D000010001628F00D060C060F04D
:1013C80061C061F062C062F000D01200010120EE3D
:1013D80035F00101AC51D9260101AD51DA22DF50B7
:1013E80001010101B56F01010101B5510D0DF35066
:1013F80001010101AC2501010101B86FF45001019F
:101408000101AD210101B96F010EB8C1D9FFB9C100
:10141800DAFFDF6201D001D075D0010120EE01F0C2
:101428000101B851D9260101B951DA22DF50010171
:101438000101AE6101D001D003D0FD0E66D065D0A8
:10144800010120EE01F00101B851D9260101B9517D
:10145800DA22DF500101B36F0101B351010101012B
:10146800B66F0101B76BB1C1A2F1B2C1A3F1030E0E
:1014780001010101B8250101B36F000E010101014D
:10148800B9210101B46FB3C1A4F1B4C1A5F1B6C1CA
:10149800A6F1B7C1A7F10101EEEC11F0010120EEB0
:1014A80035F00101AC51D9260101AD51DA22010113
:1014B80010EE35F00101AC51E1260101AD51E222F7
:1014C800E7500101B36F0101B329030BDF6E01017E
:1014D80020EE02F00101B851D9260101B951DA22F2
:1014E800AFC1E1FFB0C1E2FFDFCFE7FFB8C1D9FF6D
:1014F800B9C1DAFF000EDF6E01010101B65105D056
:1015080004D003D0FC0E01D000D01200000120EE60
:1015180035F000016A51D92600016B51DA22DF50FB
:1015280000010001736F0001000173510D0DF350AC
:10153800000100016A2500010001766FF4500001E6
:1015480000016B210001776F010E76C0D9FF77C0CB
:10155800DAFFDF6201D001D075D0000120EE01F082
:1015680000017651D92600017751DA22DF500001B7
:1015780000016C6101D001D003D0FD0E66D065D0AA
:10158800000120EE01F000017651D92600017751C3
:10159800DA22DF500001716F000171510001000172
:1015A800746F0001756B6FC060F070C061F0030E5E
:1015B8000001000176250001716F000E0001000195
:1015C80077210001726F71C062F072C063F074C05D
:1015D80064F075C065F0000119EC12F0000120EE0E
:1015E80035F000016A51D92600016B51DA22000159
:1015F80010EE35F000016A51E12600016B51E2223C
:10160800E7500001716F00017129030BDF6E0001C3
:1016180020EE02F000017651D92600017751DA2236
:101628006DC0E1FF6EC0E2FFDFCFE7FF76C0D9FFF4
:1016380077C0DAFF000EDF6E00010001745105D09B
:1016480004D003D0FC0E01D000D01200000120EE1F
:1016580019F00001D451D9260001D551DA22000E23
:10166800DF6E43D0000120EE19F00001D451D926D5
:101678000001D551DA22DF500101A56F0101A55102
:10168800010DF35001010101A325D96EF4500101A8
:101698000101A421DA6E000110EE19F00001D45105
:1016A800E1260001D551E222E7500101A66F0101B0
:1016B800A651010D0F0EF326000EF422F35000017F
:1016C8000001D425E16EF45000010001D521E26E3D
:1016D800DFCFE7FF000120EE19F00001D451D92631
:1016E8000001D551DA22DF2A00D0000120EE19F0DE
:1016F8000001D451D9260001D551DA22DF50010169
:10170800A56F01010101A2510101A55DD8A001D079
:1017180001D0A8D700D0000120EE19F00001D45163
:10172800D9260001D551DA220101A2C1DFFF00014B
:1017380020EE1AF00001D451D9260001D551DA2241
:10174800010EDF6E000120EE0FF00001D451D92602
:101758000001D551DA22DF50C96EC6881200010196
:101768000101AEC1B3F101010101B46B010120EE29
:1017780034F00101AC51D9260101AD51DA22DF5014
:1017880001010101B56F01010101B5510D0DF350C2
:1017980001010101AC2501010101B66FF4500101FD
:1017A8000101AD210101B76FB6C1D9FFB7C1DAFF99
:1017B800DF50D8B401D001D003D0FF0E52D051D0A1
:1017C800010120EE01F00101B651D9260101B751FE
:1017D800DA220101AEC1DFFF010120EE02F00101B2
:1017E800B651D9260101B751DA220101AFC1DFFF95
:1017F800030E01010101B62501010101A26F000ECE
:1018080001010101B7210101A36FB0C1A4F1B1C168
:10181800A5F1B3C1A6F1B4C1A7F10101EEEC11F035
:10182800010120EE34F00101AC51D9260101AD517E
:10183800DA22010110EE34F00101AC51E126010178
:10184800AD51E222E7500101B26F0101B229030B49
:10185800DF6EB6C1D9FFB7C1DAFF010EDF6E010E28
:1018680000D01200000100016CC071F000010001FD
:10187800726B000120EE34F000016A51D926000194
:101888006B51DA22DF5000010001736F0001000183
:1018980073510D0DF350000100016A25000100018C
:1018A800746FF450000100016B210001756F74C062
:1018B800D9FF75C0DAFFDF50D8B401D001D003D00A
:1018C800FF0E52D051D0000120EE01F000017451FA
:1018D800D92600017551DA2200016CC0DFFF000132
:1018E80020EE02F000017451D92600017551DA2268
:1018F80000016DC0DFFF030E000100017425000127
:101908000001606F000E0001000175210001616F88
:101918006EC062F06FC063F071C064F072C065F0B1
:10192800000119EC12F0000120EE34F000016A51B8
:10193800D92600016B51DA22000110EE34F00001C3
:101948006A51E12600016B51E222E7500001706FF5
:1019580000017029030BDF6E74C0D9FF75C0DAFF70
:10196800010EDF6E010E00D01200C350C4CF88F004
:101978000001896B88C089F00001886B000188111B
:1019880000010001686F000189510001696F0001C1
:10199800BCEC10F068C08CF069C08DF06AC08EF0A5
:1019A8008CC068F08DC069F08EC06AF0C00E00016E
:1019B80000016B6F7F0E000100016C6F470E000184
:1019C80000016D6F000137EC07F068C08CF069C04A
:1019D8008DF06AC08EF0FF0E000100016B6F7F0E64
:1019E800000100016C6F470E000100016D6F8CC093
:1019F80068F08DC069F08EC06AF0000122EC06F034
:101A080068C079F069C07AF06AC07BF0000132ECF6
:101A180008F079C08AF07AC08BF00001886F020E56
:101A280000010001766F000188510001896F320EB4
:101A380000010001776F000189510001000E0001CB
:101A48000001796F00018A0E0001786F000195ECA2
:101A580013F09E9C1200000120EE0BF00001D451FF
:101A6800D9260001D551DA22010EDF6E000120EEE1
:101A78000AF00001D451D9260001D551DA22000E0E
:101A8800DF6E000100016051D8B401D001D043D00D
:101A9800C7AA01D001D021D0000120EE0CF000012E
:101AA800D451D9260001D551DA22050EDF6E000186
:101AB80020EE0EF00001D451D9260001D551DA22CA
:101AC800DF2A000120EE0DF00001D451D9260001D3
:101AD800D551DA22050EDF6E2AD0C7A401D001D075
:101AE8000CD0000120EE0CF00001D451D9260001E1
:101AF800D551DA22080EDF6E1AD0000120EE0CF064
:101B08000001D451D9260001D551DA22070EDF6E23
:101B18000ED00DD00CD0000120EE0CF00001D451F5
:101B2800D9260001D551DA22060EDF6E00D0120048
:101B38000101C2EC11F001010101A7510101A61137
:101B4800D8A401D001D002D04DD04CD00101A86F4B
:101B5800010E000100019D6F0101A85100D0010193
:101B6800010E01010101A36F01016C0E0101A26FB9
:101B78000101B2EC12F00009D8B401D001D00AD0AA
:101B88000101A86F000E000100019D6F0101A8511D
:101B980029D028D00001000E01010101A36F000126
:101BA8009E0E0101A26F0101B2EC12F00009D8B437
:101BB80001D001D00AD00101A86F000E0001000178
:101BC8009D6F0101A8510ED00DD00101A86F0A0E1A
:101BD80001010101A26F0101A85101011DEC14F0DE
:101BE800BED7BDD712009EAA01D001D041D020EEA9
:101BF80004F03050D9263150DA22DF501B6E1B50CA
:101C0800010DF3503024D96EF4503120DA6ECEEC49
:101C180012F0DF6E20EE04F03050D9263150DA226F
:101C2800DF2A20EE04F03050D9263150DA22040E93
:101C3800DF6201D001D01CD020EE04F03050D9264C
:101C48003150DA22DF50176E1B6E1F0E186E1B50B4
:101C580030C019F031C01AF0E4EC13F020EE04F0B3
:101C68003050D9263150DA22000EDF6E01D000D074
:101C780032A601D001D011D0AC98AC881B6E000EF2
:101C8800176E1B501C6E1E0E186E1C50000E1A6E1E
:101C9800000E196EE4EC13F000D012000DC012F023
:101CA800136A20EE34F00B50D9260C50DA22DF509C
:101CB800146E14500D0DF3500B24156EF4500C20B7
:101CC800166E15C0D9FF16C0DAFFDF50D8B401D0A0
:101CD80001D003D0FF0E3AD039D020EE01F01550D4
:101CE800D9261650DA220DC0DFFF20EE02F015507B
:101CF800D9261650DA220EC0DFFF030E1524016E16
:101D0800000E1620026E0FC003F010C004F012C0BF
:101D180005F013C006F06BEC12F020EE34F00B5017
:101D2800D9260C50DA2210EE34F00B50E1260C5074
:101D3800E222E750116E1128030BDF6E15C0D9FFA0
:101D480016C0DAFF010EDF6E010E00D01200000E81
:101D580000010001616F000E0001606F00014CEC92
:101D680014F000017D6F020E00010001786F000180
:101D78007D510001000E000100017A6F0001810E03
:101D88000001796F0001000E000100017C6F000165
:101D9800830E00017B6F000151EC13F0000100017C
:101DA8007F6F0001806B00017FBF80070001000189
:101DB8007F51020A8011D8A401D001D01DD00001A2
:101DC8007D6F020E00010001766F00017D51000158
:101DD8007E6F0A0E00010001776F00017E5100013D
:101DE800000E00010001796F0001830E0001786F79
:101DF80000017FEC13F000D0120001010101A55190
:101E0800A411D8B401D001D043D00101A66F010EAE
:101E180001010101A76F0101A6510AD001010101C9
:101E28000101D890A437A53701010101A72B00D0E3
:101E380001010101A5AF01D001D0F0D701D000D038
:101E480001010101A45101010101A25D010101018A
:101E5800A55101010101A359D8A001D001D00DD08D
:101E680001010101A45101010101A25F0101010168
:101E7800A55101010101A35B00D00101010101018C
:101E8800D890A533A43301010101A72FD9D700D0D9
:101E9800A2C1A2F1A3C1A3F11200000100019D6734
:101EA80001D001D002D045D044D0000193EC11F00C
:101EB80000010001635100016211D8B401D001D0C2
:101EC80002D037D036D0000127EC14F00001000111
:101ED800615100016011D8A401D001D002D029D0ED
:101EE80028D00101010E00010001616F01016C0E93
:101EF8000001606F0001EAEC12F00009D8B401D0CB
:101F080001D002D016D015D00001000E000100014A
:101F1800616F00019E0E0001606F0001EAEC12F093
:101F28000009D8B401D001D002D003D002D05EECB1
:101F380014F01200000EAD6E000EAC6E010101012E
:101F4800A2A101D001D001D0AD8801010101A2A355
:101F580001D001D002D0AD8CAC8C01010101A2A549
:101F680001D001D001D0AD8E01010101A2A701D09D
:101F780001D002D0AC8801D0AC8A01010101A2A92C
:101F880001D001D001D0AD8401010101A2AB01D083
:101F980001D001D0AC8601010101A2AD01D001D070
:101FA80002D09D8A01D09D9A01010101A2AF01D002
:101FB80001D002D09D8801D09D98A3C1B0FF010136
:101FC8000101A4517F6EAD8AAC8E1200EACF92F067
:101FD800E1CF93F0E2CF94F0D9CF95F0DACF96F035
:101FE800F3CF97F0F4CF98F0F6CF99F0F7CF9AF0B7
:101FF800F8CF9BF0F5CF9CF09EA601D001D004D07D
:102008009E9663EC00F000D0F2A401D001D004D079
:10201800F294ABEC0EF000D09EAC01D001D003D00E
:10202800B9EC0CF000D051EC0FF09CC0F5FF9BC050
:10203800F8FF9AC0F7FF99C0F6FF98C0F4FF97C061
:10204800F3FF96C0DAFF95C0D9FF94C0E2FF93C0B2
:10205800E1FF92C0EAFF91C0E9FF90C0FBFF8FC08B
:10206800FAFF1100BCC1D9FFBDC1DAFFDE2A000E9C
:10207800DD22BCC1D9FFBDC1DAFF0101DECFA2F16B
:102088000101DDCFA3F1000E01010101A56F0A0EC8
:102098000101A46F010101EC0FF001010101A2513E
:1020A800090A0101A311D8A401D001D01DD0010152
:1020B800C46F020E01010101B86F0101C451010191
:1020C800C56F140E01010101B96F0101C551BCC1F1
:1020D800BAF1BDC1BBF1010169EC13F001010101C5
:1020E800C66F02D001D000D01200010120EE34F0FA
:1020F8000101A251D9260101A351DA22000EDF6E97
:10210800010120EE35F00101A251D9260101A351A8
:10211800DA22000EDF6E0101A46F000E0101010139
:10212800A56F0101A451030E01010101A56501D0AC
:1021380001D002D01CD01BD001010101A5510D0D09
:10214800F35001010101A225D96EF45001010101EA
:10215800A321DA6E000EDF6E01010101A52B030E2B
:1021680001010101A56501D001D0E6D700D0120018
:1021780000016B6F000E000100016C6F00016B51D4
:102188000001000169AF01D001D010D000010001A9
:10219800686D0001691FD8B0692B00016B6F010ED3
:1021A800000100016C6F00016B5100D000010001BB
:1021B80068C060F00001000169C061F00001000121
:1021C800626B00016B6F8E0E00010001636F0001EE
:1021D8006B516CC064F0000124EC09F060C068F039
:1021E80061C069F062C06AF000D012000101A66FF8
:1021F800000E000100019D6F0101A6510001000EB3
:1022080001010101A36F00019E0E0101A26F0101EE
:1022180079EC10F00101010E01010101A36F010128
:102228006C0E0101A26F010179EC10F00101010EA1
:1022380001010101A36F0101360E0101A26F010125
:1022480079EC10F00101010E01010101A36F0101F8
:10225800000E0101A26F010179EC10F01200A2C179
:10226800D4F0A3C1D5F0000120EE0AF00001D4514A
:10227800D9260001D551DA22000EDF6E000120EECA
:102288000BF00001D451D9260001D551DA22000EF5
:10229800DF6E000120EE0CF00001D451D9260001B8
:1022A800D551DA22050EDF6E000120EE0EF0000196
:1022B800D451D9260001D551DA22000EDF6E120062
:1022C800F2AC01D001D00AD0000E01010101A56FC6
:1022D800000E0101A46F22D021D020D0010113ECFF
:1022E80014F001010101A3510101A211D8B401D0D8
:1022F80001D00AD0000E01010101A56F000E0101F5
:10230800A46F0CD00BD00AD0000E01010101A56FFB
:10231800010E0101A46F02D001D000D01200F2AC6E
:1023280001D001D00AD0000E00010001636F000E39
:102338000001626F22D021D020D0000127EC14F0D8
:1023480000010001615100016011D8B401D001D031
:102358000AD0000E00010001636F000E0001626FD9
:102368000CD00BD00AD0000E00010001636F010EE3
:102378000001626F02D001D000D01200010164ECAC
:1023880011F001010101A5510101A411D8A401D046
:1023980001D016D0010113EC14F001010101A35181
:1023A8000101A211D8A401D001D00AD0000E010168
:1023B8000101A76F010E0101A66F0BD00AD009D049
:1023C800000E01010101A76F000E0101A66F01D0E7
:1023D80000D01200A4C1AAF1A5C1ABF1A2C1A8F115
:1023E800A3C1A9F113D0AAC1D9FFABC1DAFFA8C113
:1023F800E1FFA9C1E2FFDFCFE7FF01010101AA4B1D
:10240800AB2B01010101A84BA92B00D0010101014F
:10241800A607D8A0A7070101A629D8B4A729D8A438
:1024280001D001D0E0D700D0120062C068F063C0CC
:1024380069F060C066F061C067F013D068C0D9FF6A
:1024480069C0DAFF66C0E1FF67C0E2FFDFCFE7FFE0
:1024580000010001684B692B00010001664B672BE6
:1024680000D0000100016407D8A0650700016429B5
:10247800D8B46529D8A401D001D0E0D700D0120083
:1024880001010101A4511E0AA511D8A401D001D04F
:1024980002D01CD01BD001010101A4511F0AA511B3
:1024A800D8A401D001D012D001010101A651010127
:1024B8000101A825D96E01010101A75101010101FE
:1024C800A921DA6E000EDF6E01D000D0120003C021
:1024D80009F004C00AF001C007F002C008F00FD0EC
:1024E80009C0D9FF0AC0DAFF07C0E1FF08C0E2FF50
:1024F800DFCFE7FF094A0A2A074A082A00D005065B
:10250800D8A006060528D8B40628D8A401D001D03A
:10251800E7D700D0120001010101A351F30B9A6E15
:10252800A2C1A4F17F0E0101A4170101D890A4351E
:10253800CD6E000ECF6E000ECE6E9E900101010191
:10254800A2AF01D001D002D09D8001D09D909AAE5B
:1025580001D001D001D09A86CD801200010120EE71
:1025680035F00101A251D9260101A351DA22DF5029
:102578000101A46F0101A4510D0DF35001010101E6
:10258800A225D96EF45001010101A321DA6EDF50B2
:1025980000D01200F20E3216ACAC01D001D007D038
:1025A8003290ACA001D001D002D0328000D0ACA4CF
:1025B80001D001D001D03284ACA201D001D001D029
:1025C8003286AFCF01F0015000D01200000120EE9A
:1025D80035F000016051D92600016151DA22DF503F
:1025E8000001626F000162510D0DF35000010001FE
:1025F8006025D96EF450000100016121DA6EDF50C8
:1026080000D012003AEC14F001C01DF002C01EF018
:102618001B6E000E176E1B501C6E0B0E186E1C5096
:10262800000E1A6E000E196EE4EC13F0000E026E26
:10263800000E016E43EC14F012000101010E0101BD
:102648000101AD6F01016C0E0101AC6FBAC1AEF1B1
:10265800BBC1AFF1BCC1B0F1BDC1B1F1BEC1B2F1F6
:102668000101EAEC09F000D012000001000E01019E
:102678000101AD6F00019E0E0101AC6FBAC1AEF150
:10268800BBC1AFF1BCC1B0F1BDC1B1F1BEC1B2F1C6
:102698000101EAEC09F000D012000101010E00016D
:1026A80000016B6F0101000E00016A6F78C06CF0C9
:1026B80079C06DF07AC06EF07BC06FF07CC070F0AE
:1026C80000018AEC0AF000D012000101010E01019C
:1026D8000101AD6F0101000E0101AC6FB8C1AEF18F
:1026E800B9C1AFF1BAC1B0F1BBC1B1F10101B3ECED
:1026F8000BF000D012000101010E000100016B6F08
:1027080001016C0E00016A6F76C06CF077C06DF045
:1027180078C06EF079C06FF0000136EC0CF000D094
:1027280012000001000E000100016B6F00019E0EF7
:1027380000016A6F76C06CF077C06DF078C06EF0FB
:1027480079C06FF0000136EC0CF000D012000101E6
:102758000101A2517F0BD56E000ED76E000ED66E0A
:10276800F29401010101A2AF01D001D002D0F28A96
:1027780001D0F29AD58E12000F0E926E0F010F0142
:102788004891C29CC29EC294C186C188C18AC18038
:10279800C182C280C2829E9C9D8C12008188818ADF
:1027A800A2C1C8FF000EC76E000EC66E000EC56E31
:1027B8000E0EC612C78E8188818AC580C68A12000D
:1027C8000001000E0C6E00019E0E0B6E17C00DF07E
:1027D80018C00EF019C00FF01AC010F052EC0EF02D
:1027E80000D0120001EE00F0A20EEE6AE806FDE14C
:1027F80000EE9DF0370EEE6AE806FDE1326A000150
:1028080045EF04F0A2C130F0A3C131F020EE04F08E
:102818003050D9263150DA22000EDF6E1200000E39
:10282800F2AE010E01010101A26F0101A36B00D0FC
:102838001200FA0E00F0E82EFDD701010101A22FC7
:10284800F8D700D01200000EF2AE010E0001000110
:10285800606F0001616B00D01200A2C1D9FFA3C153
:10286800DAFF000EDE6E000EDD6E1200CECF03F032
:10287800CFCF04F003C001F004C002F0120001C081
:1028880003F002C004F004C0CFFF03C0CEFF120063
:1028980060C062F061C063F063C0D7FF62C0D6FF5A
:1028A8001200A8C1AAF1A9C1ABF11200D08EF28E14
:0A28B800F28C1200D38E0300120010
:08FFF8008AF795FFF2F9FFF111
:00000001FF
