:0400000061EF00F0BC
:10000800FACF8FF0FBCF90F0E9CF91F03AEF10F0F4
:10001800D8CF1FF0E8CF20F0E0CF21F0FACF22F0C0
:10002800FBCF23F0E9CF24F0EACF25F0E1CF26F08B
:10003800E2CF27F0D9CF28F0DACF29F0F3CF2AF092
:10004800F4CF2BF0F6CF2CF0F7CF2DF0F8CF2EF021
:10005800F5CF2FF09EA001D001D004D09E908AEC5D
:1000680013F000D09EAA01D001D004D09E9AF3ECE0
:100078000DF000D02FC0F5FF2EC0F8FF2DC0F7FF00
:100088002CC0F6FF2BC0F4FF2AC0F3FF29C0DAFF0B
:1000980028C0D9FF27C0E2FF26C0E1FF25C0EAFF3C
:1000A80024C0E9FF23C0FBFF22C0FAFF21C0E0FF04
:1000B80020C0E8FF1FC0D8FF1000EDEF13F00001CB
:1000C8007A6F000E00010001846F00017A5100016F
:1000D8007A6F000E000100017F6F00017A51000164
:1000E8007A6F000E00010001836F00017A51000150
:1000F8007A6F000E00010001826F00017A51000141
:100108007A6F000E00010001806F00017A51C6ACC1
:1001180001D001D02AD0C69C000120EE0CF00001CD
:10012800D451D9260001D551DA22050EDF6E00011F
:100138007A6F010E00010001806F00017A51000101
:1001480020EE0EF00001D451D9260001D551DA2253
:10015800DF2A000120EE0DF00001D451D92600015C
:10016800D551DA22040EDF6E00D0C7A001D001D02D
:100178000BD0C9CF81F000017A6F010E0001000198
:10018800846F00017A5100D000010001806701D01E
:1001980001D051D239D238D2C7A601D001D04BD222
:1001A80084C060F000012BEC0DF0000120EE0CF093
:1001B8000001D451D9260001D551DA22080EDF6298
:1001C80001D001D038D200017A6F000E0001000181
:1001D800846F00017A5100017A6F010E000100015D
:1001E800826F00017A5127D226D225D2C7A801D022
:1001F80001D040D0000120EE0BF00001D451D926E7
:100208000001D551DA22DF2A000100018451D8B457
:1002180001D001D023D0C7BA01D001D009D0000144
:100228007A6F010E00010001836F00017A5116D028
:10023800000120EE0EF00001D451D9260001D5515D
:10024800DA22DF2A000120EE0DF00001D451D92670
:100258000001D551DA22060EDF6E00D0000120EE33
:100268000CF00001D451D9260001D551DA22050E2F
:10027800DF6EE1D1000100018451D8B401D001D072
:10028800DAD1000120EE0BF00001D451D92600018B
:10029800D551DA22DF2AC7BA01D001D02DD0C7B490
:1002A80001D001D00CD0000120EE0CF00001D45197
:1002B800D9260001D551DA22070EDF6EBCD1000124
:1002C80020EE0CF00001D451D9260001D551DA22D4
:1002D800080EDF6E00017A6F010E00010001826FC7
:1002E80000017A5100017A6F000E00010001846F4D
:1002F80000017A51A0D19FD1000120EE0EF000013B
:10030800D451D9260001D551DA22DF2A000120EE86
:100318000CF00001D451D9260001D551DA22050E7E
:10032800DF6E000120EE0DF00001D451D926000146
:10033800D551DA22060EDF6E7ED17DD17CD17BD1FC
:10034800000120EE1AF00001D451D9260001D55140
:10035800DA22DF5000017A6F000120EE19F0000167
:10036800D451D9260001D551DA22DF5000017A5D37
:10037800D8B001D001D032D0000120EE1AF000012F
:10038800D451D9260001D551DA22DF5000017A6F05
:1003980000017A51010D0F0EF326000EF422F350DE
:1003A80000010001D425D96EF45000010001D521C7
:1003B800DA6EDF50C96E000120EE1AF00001D45148
:1003C800D9260001D551DA22DF2A00017A6F010E01
:1003D800000100017F6F00017A512DD1000120EE4C
:1003E8000CF00001D451D9260001D551DA22050EAE
:1003F800DF6E21D120D1C7A801D001D07BD0000168
:1004080020EE0BF00001D451D9260001D551DA2293
:10041800DF2A000100018451D8B401D001D055D0A1
:10042800C7AA01D001D02FD0000120EE0AF00001A8
:10043800D451D9260001D551DA22DF5000017A6F54
:1004480000017A51010DF35000010001D425D96E45
:10045800F45000010001D521DA6E000181C0DFFFF0
:10046800000120EE0AF00001D451D9260001D5512F
:10047800DA22DF2A00017A6F010E00010001836F82
:1004880000017A512BD0000120EE0EF00001D4516A
:10049800D9260001D551DA22DF2A000120EE0DF01D
:1004A8000001D451D9260001D551DA22060EDF6E9B
:1004B800000120EE0CF00001D451D9260001D551DD
:1004C800DA22050EDF6E0AD009D000017A6F010E1C
:1004D80000010001836F00017A5100D0000120EE75
:1004E8000CF00001D451D9260001D551DA22050EAD
:1004F800DF6EA1D0000100018451D8B401D001D031
:100508009AD0000120EE0BF00001D451D926000149
:10051800D551DA22DF2AC7AA01D001D027D000019D
:1005280020EE0AF00001D451D9260001D551DA2273
:10053800DF5000017A6F00017A51010DF35000017C
:100548000001D425D96EF45000010001D521DA6EDE
:10055800000181C0DFFF000120EE0AF00001D45144
:10056800D9260001D551DA22DF2A65D0C7A401D0E7
:1005780001D024D0000120EE0CF00001D451D9267E
:100588000001D551DA22080EDF6E00017A6F010EE4
:1005980000010001836F00017A5100017A6F010E9A
:1005A80000010001826F00017A5100017A6F000E8C
:1005B80000010001846F00017A513DD0000120EE56
:1005C8000EF00001D451D9260001D551DA22DF2AD4
:1005D800000120EE0DF00001D451D9260001D551BB
:1005E800DA22060EDF6E000120EE0CF00001D45175
:1005F800D9260001D551DA22050EDF6E1CD01BD09A
:100608001AD019D018D017D0000120EE0CF0000134
:10061800D451D9260001D551DA22DF50050AD8B4C1
:10062800BBD5030AD8B4E2D5010AD8B4E4D60F0A78
:10063800D8B486D600D000010001846701D001D06B
:1006480007D0000100017F51D8B401D001D007D0F4
:10065800C6B801D001D003D0C68801D000D00001AF
:1006680020EE0AF00001D451D9260001D551DA2232
:10067800080EDF6401D001D027D000010001836794
:1006880001D001D021D0000120EE0CF00001D4519E
:10069800D9260001D551DA22050EDF6E000120EEC1
:1006A8000EF00001D451D9260001D551DA22DF2AF3
:1006B800000120EE0DF00001D451D9260001D551DA
:1006C800DA22070EDF6E00D0000100018351D8B492
:1006D80001D001D050D0000120EE0BF00001D45120
:1006E800D9260001D551DA22000110EE0AF00001E6
:1006F800D451E1260001D551E222E75000017A6F7A
:1007080000017A51010DF35000010001D425E16E7A
:10071800F45000010001D521E26EDFCFE7FF0001B0
:1007280020EE0AF00001D451D9260001D551DA2271
:10073800DF5000017A6F00017A2900010001766F0D
:1007480000017B6F280E00010001776F00017B51CB
:10075800D4C078F0D5C079F000011AEC14F000018B
:1007680020EE0AF00001D451D9260001D551DA2231
:10077800000EDF6E5ED0000120EE0EF00001D451B5
:10078800D9260001D551DA22DF50D8B401D001D0E2
:1007980050D0000120EE0EF00001D451D9260001FE
:1007A800D551DA22DF50000100017C6F000120EEF4
:1007B8000DF00001D451D9260001D551DA22DF50BD
:1007C800000100017D6F000120EE0BF00001D45103
:1007D800D9260001D551DA22DF50000100017E6FD1
:1007E80000017A6F030E00010001766F00017A5153
:1007F80000017B6F290E00010001776F00017B511A
:100808000001000E00010001796F00017C0E00015B
:10081800786F00011AEC14F0000120EE0EF00001D0
:10082800D451D9260001D551DA22000EDF6E01D04D
:1008380000D0000100018251D8B401D001D020D0ED
:1008480000017A6F000E00010001766F00017A51F5
:1008580000017B6F2A0E00010001776F00017B51B8
:10086800D4C078F0D5C079F000011AEC14F000017A
:100878007A6F000E00010001826F00017A5100D0EA
:100888001200E00ED36E9B8C0101010E01010101E3
:10089800996F0101D30E0101986F01017FEC14F0EB
:1008A8000101010E01010101996F0101DC0E010135
:1008B800986F0101B7EC11F00101010E010101016E
:1008C800996F0101D80E0101986F0101AAEC14F08B
:1008D8004AEC11F00101BD6F960E01010101986FFC
:1008E8000101BD51010146EC14F00101BD6F9B0EE1
:1008F80001010101986F0101BD510101BE6F000E98
:1009080001010101996F0101BE51010113EC13F0BE
:100918009F909F9A9F860101BD6F9E0E0101010164
:100928009E6F0101BD510101FDEC0EF09D86010194
:10093800BD6F6C0E01010101986F0101BD51000EE0
:10094800010101019A6F190E0101996F0101EEEC85
:100958000FF0D3EC14F05BEC14F000D098EC0DF031
:100968000101BD6F0A0E01010101B06F0101BD5106
:100978000101010E01010101B26F0101DA0E01014D
:10098800B16F0101010E01010101B46F0101C10E36
:100998000101B36F0101BDEC13F001010101DB6F2F
:1009A80001010101DBAF01D001D08BD09BD09AD0DF
:1009B80099D087D00101010E01010101996F010150
:1009C800CE0E0101986F01010101DAC19AF101010E
:1009D80001019B6B01010101DB51010101019C6FC8
:1009E80001019D6B01019CBF9D070101010E0101E1
:1009F80001019F6F0101C10E01019E6F0101CEEC43
:100A080014F070D0C1C1D0F16DD0FF0E0101BD6FDF
:100A1800FF0EBE6F0101BD5101010101DB2501017E
:100A2800BF6F000E01010101DBBFFF0E0101BE21F6
:100A38000101C06F0101C10E0101BF25D96E01017D
:100A4800010E0101C021DA6EDF5001010101D06FF2
:100A580001010101D0510B0DC80EF3240101BD6F36
:100A6800F80EF4200101BE6F01016C0E0101BD25D5
:100A780001010101D16F0101010E0101BE21010136
:100A8800D26F010120EE01F00101D151D9260101F7
:100A9800D251DA22DF5001010101986F030E0101E2
:100AA8000101D12501010101996F000E0101010128
:100AB800D22101019A6F010126EC0BF013D012D05C
:100AC80011D001010101DA510A0AD8B473D7220AF8
:100AD800D8B498D7010AD8B495D7030AD8B495D70B
:100AE80001D000D00101BD6F0A0E01010101B06FF4
:100AF8000101BD510101010E01010101B26F0101A6
:100B0800DA0E0101B16F0101010E01010101B46F9B
:100B18000101C10E0101B36F0101A5EC13F0010140
:100B28000101DB6F01010101DBAF01D001D06DD004
:100B380015D714D713D769D00101010E010101019E
:100B4800B36F0101D80E0101B26F01010101DAC1D1
:100B5800B4F101010101B56B01010101DB51010192
:100B68000101B66F0101B76B0101B6BFB7070101FB
:100B7800010E01010101B96F0101C10E0101B86F38
:100B8800010186EC10F0EAD60101BD6FAA0E010141
:100B98000101846F0101BD51C1C184F1C2C185F158
:100BA8000101BD6F030E01010101826F0101BD51F9
:100BB800C28201D000D00101010E01010101996F2B
:100BC8000101CC0E0101986F01010101DAC19AF10E
:100BD800010101019B6B01010101DB5101010101CF
:100BE8009C6F01019D6B01019CBF9D070101010ED6
:100BF800010101019F6F0101C10E01019E6F0101F9
:100C0800C8EC12F0ABD6AAD6A9D601010101DA5177
:100C18000B0AD8B491D7150AD8B4CDD7010AD8B4DD
:100C2800CAD72D0AD8B4B0D799D698D697D696D61B
:100C380061EF00F00F0E00016E6F000168C06FF0E9
:100C4800000169C070F000016AC071F000016E29EE
:100C58000001726F05D00001D890713370336F3383
:100C68000001722FF8D700016F5100010001736F66
:100C78000001736701D001D00ED0000E0001000101
:100C8800686F000E00010001696F000E000100018D
:100C98006A6FE4D0E3D00F0E00016E6F00016BC0E5
:100CA8006FF000016CC070F000016DC071F00001C0
:100CB8006E290001726F05D00001D890713370332E
:100CC8006F330001722FF8D700016F510001000146
:100CD800786F0001786701D001D00ED0000E0001B6
:100CE8000001686F000E00010001696F000E00012D
:100CF80000016A6FB3D0B2D00001000178517B0FB8
:100D08000001000173276AC078F000016D510001ED
:100D18000001781B800E0001000178170001000116
:100D2800698F000100016C8FFF0E000100016B1735
:100D3800FF0E000100016C17000E000100016D1785
:100D4800000E00010001746F000E00010001756FB4
:100D5800000E00010001766F00016E6F070E0001A2
:100D68000001776F00016E5100D00001000168A1F9
:100D780001D001D013D0000100016B510001000126
:100D88007427000100016C51000100017523000166
:100D980000016D5100010001762300D00001D890B8
:100DA80000016A3300016933000168330001D890FB
:100DB80000016B3700016C3700016D37000100013D
:100DC800772FD3D700D000016E6F090E0001000104
:100DD800776F00016E5100D00001000168A101D0B9
:100DE80001D013D0000100016B51000100017427EC
:100DF800000100016C510001000175230001000190
:100E08006D5100010001762300D00001D890000147
:100E18006A3300016933000168330001D89000018A
:100E28007633000175330001743300010001772F18
:100E3800D3D700D074C060F075C061F076C062F09E
:100E480073C063F078C064F0000120EC09F060C062
:100E580068F061C069F062C06AF000D012000F0E3D
:100E680000016E6F000168C06FF0000169C070F08A
:100E780000016AC071F000016E290001726F05D08F
:100E88000001D890713370336F330001722FF8D797
:100E980000016F5100010001776F0001776701D0F1
:100EA80001D00ED0000E00010001686F000E000195
:100EB8000001696F000E000100016A6FCAD0C9D035
:100EC8000F0E00016E6F00016BC06FF000016CC067
:100ED80070F000016DC071F000016E290001726FA1
:100EE80005D00001D890713370336F330001722F31
:100EF800F8D700016F5100010001786F0001786791
:100F080001D001D00ED0000E00010001686F000E64
:100F180000010001696F000E000100016A6F99D09D
:100F280098D0000E00010001746F000E000100014E
:100F3800756F000E00010001766F00010001785105
:100F4800890F00010001775F6AC078F000016D51D8
:100F580000010001781B800E0001000178170001D4
:100F68000001698FFF0E000100016817FF0E0001E4
:100F780000016917000E000100016A170001000155
:100F88006C8FFF0E000100016B17FF0E00010001BE
:100F98006C17000E000100016D1700016E6F180E2E
:100FA80000010001736F00016E510001D89000012B
:100FB80074370001753700017637000100016B5165
:100FC80000010001685D000100016C510001000191
:100FD8006959000100016D51000100016A59D8A04A
:100FE80001D001D015D0000100016B5100010001B2
:100FF800685F000100016C5100010001695B00019C
:1010080000016D51000100016A5B0001000174815B
:101018000001D890000168370001693700016A377C
:1010280000010001732FC1D700D074C060F075C0F3
:1010380061F076C062F077C063F078C064F00001B8
:1010480020EC09F060C068F061C069F062C06AF025
:1010580000D012000F0E00017D6F000179C07EF0F4
:1010680000017AC07FF000017BC080F000017D297B
:101078000001816F05D00001D89080337F337E3323
:101088000001812FF8D700017E5100010001876F10
:101098000001876701D001D00FD0000E00010001C8
:1010A800796F000E00017A6F000E00017B6F000E51
:1010B80000017C6FC0D0BFD0170E00017D6F00010A
:1010C80079C07EF000017AC07FF000017BC080F01B
:1010D80000017D290001816F05D00001D89080337F
:1010E8007F337E330001812FF8D700017E51000144
:1010F8000001826F000100017A8FFF0E00010001DC
:101108007917FF0E000100017A17000E0001000197
:101118007B1700010001795100010001836F000174
:1011280000017A510001846F00017B510001856F35
:101138000001866B8E0E00010001875F000100012F
:1011480087AF01D001D029D0000100018751800A62
:101158008F0FD8B001D001D010D0000E00010001CF
:10116800796F000E00017A6F000E00017B6F000E90
:1011780000017C6F60D05FD000D00001D8900001E2
:101188008633000185330001843300018333000175
:101198000001873FF2D72ED02DD0170E0001000195
:1011A800876501D001D01ED0000E00010001796FC3
:1011B800000E00017A6F000E00017B6F000E000127
:1011C8007C6F39D038D00ED00001D8900001833719
:1011D80000018437000185370001863700010001CE
:1011E800870700D000010001876701D001D0ECD744
:1011F80001D000D0000100018251D8B401D001D043
:1012080011D000010001861F0001851F0001841F05
:101218000001836D000E0001842300018523000175
:10122800862300D083C079F084C07AF085C07BF033
:1012380086C07CF000D01200000100016351D8B4D0
:1012480001D001D00CD000010001605100016111F2
:1012580000016211D8A401D001D01CD000D0000E2A
:1012680000010001606F000E00010001616F000EB7
:1012780000010001626FA5D0A4D00CD000010001CC
:10128800632B0001D8900001623300016133000133
:10129800603300D0000E0001000160150001656F89
:1012A800000E0001000161150001666FFE0E0001CD
:1012B800000162150001676F000165516611671131
:1012C800D8A401D001D0DAD719D018D00001000174
:1012D800632B010E000100016027000E00010001D0
:1012E8006123000E0001000162230001D890000173
:1012F8006233000161330001603300D0000E000149
:10130800000160150001656F000E00010001611504
:101318000001666FFF0E0001000162150001676F92
:101328000001655166116711D8A401D001D0CED74C
:101338000DD00CD00001000163070001D890000116
:101348006037000161370001623700D000010001F9
:1013580061AF01D001D0EED70001000163B101D027
:1013680001D004D000010001619F00D00001D89095
:1013780063330001000163510001676F666B656BA1
:101388000001655100010001601300016651000170
:10139800000161130001675100010001621300019F
:1013A80000016451D8B401D001D004D0000100017B
:1013B800628F00D060C060F061C061F062C062F00E
:1013C80000D01200010120EE35F00101A251D9260A
:1013D8000101A351DA22DF5001010101AB6F0101C4
:1013E8000101AB510D0DF35001010101A2250101CD
:1013F8000101AE6FF45001010101A3210101AF6F9A
:10140800010EAEC1D9FFAFC1DAFFDF6201D001D052
:1014180075D0010120EE01F00101AE51D92601017C
:10142800AF51DA22DF5001010101A46101D001D0DE
:1014380003D0FD0E66D065D0010120EE01F0010158
:10144800AE51D9260101AF51DA22DF500101A96F4F
:101458000101A95101010101AC6F0101AD6BA7C1E7
:1014680098F1A8C199F1030E01010101AE2501010E
:10147800A96F000E01010101AF210101AA6FA9C1E5
:101488009AF1AAC19BF1ACC19CF1ADC19DF10101DA
:1014980072EC12F0010120EE35F00101A251D926BB
:1014A8000101A351DA22010110EE35F00101A25128
:1014B800E1260101A351E222E7500101A96F0101D0
:1014C800A929030BDF6E010120EE02F00101AE51E4
:1014D800D9260101AF51DA22A5C1E1FFA6C1E2FF79
:1014E800DFCFE7FFAEC1D9FFAFC1DAFF000EDF6E75
:1014F80001010101AC5105D004D003D0FC0E01D08C
:1015080000D01200000120EE35F000016A51D92602
:1015180000016B51DA22DF5000010001736F0001F6
:10152800000173510D0DF350000100016A250001FF
:101538000001766FF450000100016B210001776F04
:10154800010E76C0D9FF77C0DAFFDF6201D001D083
:1015580075D0000120EE01F000017651D926000176
:101568007751DA22DF50000100016C6101D001D00F
:1015780003D0FD0E66D065D0000120EE01F0000119
:101588007651D92600017751DA22DF500001716FB8
:101598000001715100010001746F0001756B6FC08B
:1015A80060F070C061F0030E0001000176250001B3
:1015B800716F000E0001000177210001726F71C088
:1015C80062F072C063F074C064F075C065F0000129
:1015D8009DEC12F0000120EE35F000016A51D92689
:1015E80000016B51DA22000110EE35F000016A515A
:1015F800E12600016B51E222E7500001716F000102
:101608007129030BDF6E000120EE02F00001765114
:10161800D92600017751DA226DC0E1FF6EC0E2FFE2
:10162800DFCFE7FF76C0D9FF77C0DAFF000EDF6EA5
:1016380000010001745105D004D003D0FC0E01D084
:1016480000D01200000120EE19F00001D451D92673
:101658000001D551DA22000EDF6E43D0000120EEE2
:1016680019F00001D451D9260001D551DA22DF50F2
:1016780001019B6F01019B51010DF3500101010113
:101688009925D96EF450010101019A21DA6E000101
:1016980010EE19F00001D451E1260001D551E222E3
:1016A800E75001019C6F01019C51010D0F0EF326BB
:1016B800000EF422F35000010001D425E16EF4502D
:1016C80000010001D521E26EDFCFE7FF000120EE27
:1016D80019F00001D451D9260001D551DA22DF2AA8
:1016E80000D0000120EE19F00001D451D9260001E4
:1016F800D551DA22DF5001019B6F01010101985198
:1017080001019B5DD8A001D001D0A8D700D000016D
:1017180020EE19F00001D451D9260001D551DA2262
:10172800010198C1DFFF000120EE1AF00001D45139
:10173800D9260001D551DA22010EDF6E000120EE14
:101748000FF00001D451D9260001D551DA22DF501B
:10175800C96EC688120001010101A4C1A9F10101E5
:101768000101AA6B010120EE34F00101A251D92632
:101778000101A351DA22DF5001010101AB6F010120
:101788000101AB510D0DF35001010101A225010129
:101798000101AC6FF45001010101A3210101AD6FFA
:1017A800ACC1D9FFADC1DAFFDF50D8B401D001D048
:1017B80003D0FF0E52D051D0010120EE01F00101FB
:1017C800AC51D9260101AD51DA220101A4C1DFFFD4
:1017D800010120EE02F00101AC51D9260101AD5101
:1017E800DA220101A5C1DFFF030E01010101AC25C9
:1017F80001010101986F000E01010101AD210101F4
:10180800996FA6C19AF1A7C19BF1A9C19CF1AAC180
:101818009DF1010172EC12F0010120EE34F001019A
:10182800A251D9260101A351DA22010110EE34F0A8
:101838000101A251E1260101A351E222E750010171
:10184800A86F0101A829030BDF6EACC1D9FFADC198
:10185800DAFF010EDF6E010E00D012000001000158
:101868006CC071F000010001726B000120EE34F0D1
:1018780000016A51D92600016B51DA22DF500001BC
:101888000001736F0001000173510D0DF350000149
:1018980000016A2500010001746FF4500001000185
:1018A8006B210001756F74C0D9FF75C0DAFFDF5076
:1018B800D8B401D001D003D0FF0E52D051D00001CE
:1018C80020EE01F000017451D92600017551DA2289
:1018D80000016CC0DFFF000120EE02F0000174512E
:1018E800D92600017551DA2200016DC0DFFF030E11
:1018F80000010001742500010001606F000E000165
:10190800000175210001616F6EC062F06FC063F065
:1019180071C064F072C065F000019DEC12F0000126
:1019280020EE34F000016A51D92600016B51DA2209
:10193800000110EE34F000016A51E12600016B51FC
:10194800E222E7500001706F00017029030BDF6E7F
:1019580074C0D9FF75C0DAFF010EDF6E010E00D02A
:101968001200C350C4CF88F00001896B88C089F089
:101978000001886B0001881100010001686F0001F7
:1019880089510001696F00010CEC11F068C08CF0FE
:1019980069C08DF06AC08EF08CC068F08DC069F0A7
:1019A8008EC06AF0C00E000100016B6F7F0E00014F
:1019B80000016C6F470E000100016D6F000133ECF0
:1019C80007F068C08CF069C08DF06AC08EF0FF0E19
:1019D800000100016B6F7F0E000100016C6F470E64
:1019E800000100016D6F8CC068F08DC069F08EC079
:1019F8006AF000011EEC06F068C079F069C07AF060
:101A08006AC07BF000012EEC08F079C08AF07AC039
:101A18008BF00001886F020E00010001766F000153
:101A280088510001896F320E00010001776F0001B3
:101A380089510001000E00010001796F00018A0E32
:101A48000001786F000130EC14F09E9C1200000138
:101A580020EE0BF00001D451D9260001D551DA222D
:101A6800010EDF6E000120EE0AF00001D451D926E4
:101A78000001D551DA22000EDF6E0001000160512D
:101A8800D8B401D001D043D0C7AA01D001D021D009
:101A9800000120EE0CF00001D451D9260001D551E7
:101AA800DA22050EDF6E000120EE0EF00001D4519F
:101AB800D9260001D551DA22DF2A000120EE0DF0E7
:101AC8000001D451D9260001D551DA22050EDF6E66
:101AD8002AD0C7A401D001D00CD0000120EE0CF010
:101AE8000001D451D9260001D551DA22080EDF6E43
:101AF8001AD0000120EE0CF00001D451D9260001C3
:101B0800D551DA22070EDF6E0ED00DD00CD00001B1
:101B180020EE0CF00001D451D9260001D551DA226B
:101B2800060EDF6E00D01200010146EC12F0010132
:101B380001019D5101019C11D8A401D001D002D00E
:101B48004DD04CD001019E6F010E000100019D6F28
:101B580001019E5100D00101010E01010101996F9F
:101B68000101360E0101986F010136EC13F00009EE
:101B7800D8B401D001D00AD001019E6F000E000137
:101B880000019D6F01019E5129D028D00001000E4F
:101B980001010101996F00019E0E0101986F010179
:101BA80036EC13F00009D8B401D001D00AD00101F5
:101BB8009E6F000E000100019D6F01019E510ED025
:101BC8000DD001019E6F0A0E01010101986F0101FC
:101BD8009E51010196EC14F0BED7BDD712009EAA03
:101BE80001D001D041D020EE04F03050D926315038
:101BF800DA22DF501B6E1B50010DF3503024D96ED2
:101C0800F4503120DA6E52EC13F0DF6E20EE04F05F
:101C18003050D9263150DA22DF2A20EE04F0305035
:101C2800D9263150DA22040EDF6201D001D01CD04F
:101C380020EE04F03050D9263150DA22DF50176EEA
:101C48001B6E1F0E186E1B5030C019F031C01AF0F1
:101C58006DEC14F020EE04F03050D9263150DA2221
:101C6800000EDF6E01D000D032A601D001D011D015
:101C7800AC98AC881B6E000E176E1B501C6E1E0EA7
:101C8800186E1C50000E1A6E000E196E6DEC14F0D2
:101C980000D012000DC012F0136A20EE34F00B5081
:101CA800D9260C50DA22DF50146E14500D0DF35063
:101CB8000B24156EF4500C20166E15C0D9FF16C0F3
:101CC800DAFFDF50D8B401D001D003D0FF0E3AD0EC
:101CD80039D020EE01F01550D9261650DA220DC061
:101CE800DFFF20EE02F01550D9261650DA220EC07A
:101CF800DFFF030E1524016E000E1620026E0FC0C2
:101D080003F010C004F012C005F013C006F0EFECA9
:101D180012F020EE34F00B50D9260C50DA2210EED7
:101D280034F00B50E1260C50E222E750116E1128D6
:101D3800030BDF6E15C0D9FF16C0DAFF010EDF6E88
:101D4800010E00D01200000E00010001616F000EAC
:101D58000001606F0001C5EC14F000017D6F020EF8
:101D680000010001786F00017D510001000E0001A3
:101D780000017A6F0001810E0001796F0001000EE9
:101D8800000100017C6F0001830E00017B6F0001E0
:101D9800D5EC13F0000100017F6F0001806B00019A
:101DA8007FBF8007000100017F51020A8011D8A47B
:101DB80001D001D01DD000017D6F020E000100018D
:101DC800766F00017D5100017E6F0A0E000100014F
:101DD800776F00017E510001000E00010001796F4C
:101DE8000001830E0001786F00011AEC14F000D096
:101DF80012008188818A9EC1C8FF000EC76E000E3E
:101E0800C66E000EC56E0E0EC612C78E8188818AF8
:101E1800C580C68A000E01010101A06F000E0101F4
:101E28009F6F01010101A051800A800F040ED8B4F0
:101E38009F5DD8A001D001D002D02ED02DD09FC157
:101E480098F1A0C199F1000E010101019B6F0B0EE1
:101E580001019A6F010183EC11F001016C0E01017F
:101E680001019825D96E0101010E01010101992195
:101E7800DA6E000EDF6E010101019F4BA02B0101FC
:101E88000101A051800A800F040ED8B49F5DD8A02C
:101E980001D001D0D4D700D01200010101019B511B
:101EA8009A11D8B401D001D043D001019C6F010E22
:101EB800010101019D6F01019C510AD0010101013D
:101EC8000101D8909A379B37010101019D2B00D061
:101ED800010101019BAF01D001D0F0D701D000D0A2
:101EE800010101019A5101010101985D01010101FE
:101EF8009B51010101019959D8A001D001D00DD001
:101F0800010101019A5101010101985F01010101DB
:101F18009B5101010101995B00D0010101010101FF
:101F2800D8909B339A33010101019D2FD9D700D056
:101F380098C198F199C199F11200000100019D67BB
:101F480001D001D002D045D044D0000117EC12F0E6
:101F580000010001635100016211D8B401D001D021
:101F680002D037D036D00001A0EC14F000010001F7
:101F7800615100016011D8A401D001D002D029D04C
:101F880028D00101010E00010001616F0101360E28
:101F98000001606F00016EEC13F00009D8B401D0A5
:101FA80001D002D016D015D00001000E00010001AA
:101FB800616F00019E0E0001606F00016EEC13F06E
:101FC8000009D8B401D001D002D003D002D0D7EC98
:101FD80014F01200000EAD6E000EAC6E010101018E
:101FE80098A101D001D001D0AD880101010198A3C9
:101FF80001D001D002D0AD8CAC8C0101010198A5B3
:1020080001D001D001D0AD8E0101010198A701D006
:1020180001D002D0AC8801D0AC8A0101010198A995
:1020280001D001D001D0AD840101010198AB01D0EC
:1020380001D001D0AC860101010198AD01D001D0D9
:1020480002D09D8A01D09D9A0101010198AF01D06B
:1020580001D002D09D8801D09D9899C1B0FF01019F
:1020680001019A517F6EAD8AAC8E1200EACF92F0D0
:10207800E1CF93F0E2CF94F0D9CF95F0DACF96F094
:10208800F3CF97F0F4CF98F0F6CF99F0F7CF9AF016
:10209800F8CF9BF0F5CF9CF09EA601D001D004D0DC
:1020A8009E9663EC00F000D0F2A401D001D004D0D9
:1020B800F294A7EC0EF000D09EAC01D001D003D072
:1020C800B5EC0CF000D0A1EC0FF09CC0F5FF9BC064
:1020D800F8FF9AC0F7FF99C0F6FF98C0F4FF97C0C1
:1020E800F3FF96C0DAFF95C0D9FF94C0E2FF93C012
:1020F800E1FF92C0EAFF91C0E9FF90C0FBFF8FC0EB
:10210800FAFF1100B2C1D9FFB3C1DAFFDE2A000E0F
:10211800DD22B2C1D9FFB3C1DAFF0101DECF98F1E8
:102128000101DDCF99F1000E010101019B6F0A0E3B
:1021380001019A6F010151EC0FF001010101985161
:10214800090A01019911D8A401D001D01DD00101BB
:10215800BA6F020E01010101AE6F0101BA5101010E
:10216800BB6F140E01010101AF6F0101BB51B2C178
:10217800B0F1B3C1B1F1010104EC14F001010101A6
:10218800BC6F02D001D000D01200010120EE34F063
:1021980001019851D92601019951DA22000EDF6E0A
:1021A800010120EE35F001019851D926010199511C
:1021B800DA22000EDF6E01019A6F000E01010101A3
:1021C8009B6F01019A51030E010101019B6501D02A
:1021D80001D002D01CD01BD0010101019B510D0D73
:1021E800F350010101019825D96EF4500101010154
:1021F8009921DA6E000EDF6E010101019B2B030E9F
:10220800010101019B6501D001D0E6D700D0120081
:1022180000016B6F000E000100016C6F00016B5133
:102228000001000169AF01D001D010D00001000108
:10223800686D0001691FD8B0692B00016B6F010E32
:10224800000100016C6F00016B5100D0000100011A
:1022580068C060F00001000169C061F00001000180
:10226800626B00016B6F8E0E00010001636F00014D
:102278006B516CC064F0000120EC09F060C068F09C
:1022880061C069F062C06AF000D0120001019C6F61
:10229800000E000100019D6F01019C510001000E1C
:1022A80001010101996F00019E0E0101986F010162
:1022B800C9EC10F00101010E01010101996F010142
:1022C800360E0101986F0101C9EC10F00101010EF1
:1022D80001010101996F0101000E0101986F0101CF
:1022E800C9EC10F00201020E01010101996F02010F
:1022F800000E0101986F0101C9EC10F01200000EE8
:10230800010101019D6F000E01019C6F00D00101C8
:10231800010198A101D001D00DD0010101019A510C
:10232800010101019C27010101019B5101010101EA
:102338009D2300D0010101010101D8909A379B37F4
:10234800010101010101D89099339833010101017C
:1023580099519811D8A401D001D0D9D79CC198F12E
:102368009DC199F1120098C1D4F099C1D5F000012E
:1023780020EE0AF00001D451D9260001D551DA2205
:10238800000EDF6E000120EE0BF00001D451D926BB
:102398000001D551DA22000EDF6E000120EE0CF0AC
:1023A8000001D451D9260001D551DA22050EDF6E7D
:1023B800000120EE0EF00001D451D9260001D551BC
:1023C800DA22000EDF6E1200F2AC01D001D00AD082
:1023D800000E010101019B6F000E01019A6F22D0CE
:1023E80021D020D001018CEC14F001010101995198
:1023F80001019811D8B401D001D00AD0000E010112
:1024080001019B6F000E01019A6F0CD00BD00AD00E
:10241800000E010101019B6F010E01019A6F02D0AC
:1024280001D000D01200F2AC01D001D00AD0000EC9
:1024380000010001636F000E0001626F22D021D0FD
:1024480020D00001A0EC14F000010001615100014E
:102458006011D8B401D001D00AD0000E00010001EB
:10246800636F000E0001626F0CD00BD00AD0000E13
:1024780000010001636F010E0001626F02D001D0FC
:1024880000D012000101E8EC11F0010101019B519B
:1024980001019A11D8A401D001D016D001018CEC09
:1024A80014F001010101995101019811D8A401D03A
:1024B80001D00AD0000E010101019D6F010E01013A
:1024C8009C6F0BD00AD009D0000E010101019D6F4D
:1024D800000E01019C6F01D000D012009AC1A0F13A
:1024E8009BC1A1F198C19EF199C19FF113D0A0C1E0
:1024F800D9FFA1C1DAFF9EC1E1FF9FC1E2FFDFCF93
:10250800E7FF01010101A04BA12B010101019E4B35
:102518009F2B00D0010101019C07D8A09D07010154
:102528009C29D8B49D29D8A401D001D0E0D700D0E7
:10253800120062C068F063C069F060C066F061C0F4
:1025480067F013D068C0D9FF69C0DAFF66C0E1FF41
:1025580067C0E2FFDFCFE7FF00010001684B692B8E
:1025680000010001664B672B00D0000100016407E1
:10257800D8A0650700016429D8B46529D8A401D07A
:1025880001D0E0D700D01200010101019A511E0AC2
:102598009B11D8A401D001D002D01CD01BD00101BE
:1025A80001019A511F0A9B11D8A401D001D012D061
:1025B800010101019C51010101019E25D96E010112
:1025C80001019D51010101019F21DA6E000EDF6EAC
:1025D80001D000D0120003C009F004C00AF001C005
:1025E80007F002C008F00FD009C0D9FF0AC0DAFF0F
:1025F80007C0E1FF08C0E2FFDFCFE7FF094A0A2A68
:10260800074A082A00D00506D8A006060528D8B427
:102618000628D8A401D001D0E7D700D012000101C4
:1026280001019951F30B9A6E98C19AF17F0E01013D
:102638009A170101D8909A35CD6E000ECF6E000E14
:10264800CE6E9E900101010198AF01D001D002D059
:102658009D8001D09D909AAE01D001D001D09A867C
:10266800CD801200010120EE35F001019851D926E4
:1026780001019951DA22DF5001019A6F01019A5143
:102688000D0DF350010101019825D96EF450010197
:1026980001019921DA6EDF5000D01200F20E3216D5
:1026A800ACAC01D001D007D03290ACA001D001D0A1
:1026B80002D0328000D0ACA401D001D001D0328445
:1026C800ACA201D001D001D03286AFCF01F00150C9
:1026D80000D01200000120EE35F000016051D9262B
:1026E80000016151DA22DF500001626F000162517E
:1026F8000D0DF350000100016025D96EF450000162
:1027080000016121DA6EDF5000D01200BCEC14F039
:1027180001C01DF002C01EF01B6E000E176E1B508C
:102728001C6E0B0E186E1C50000E1A6E000E196EE1
:102738006DEC14F0000E026E000E016EB3EC14F096
:1027480012000001000E01010101A36F00019E0E9D
:102758000101A26FB0C1A4F1B1C1A5F1B2C1A6F146
:10276800B3C1A7F1B4C1A8F10101E6EC09F000D0AA
:1027780012000101010E01010101A36F0101360ED2
:102788000101A26FB0C1A4F1B1C1A5F1B2C1A6F116
:10279800B3C1A7F1B4C1A8F10101E6EC09F000D07A
:1027A80012000201020E000100016B6F0201000E0F
:1027B80000016A6F78C06CF079C06DF07AC06EF075
:1027C8007BC06FF07CC070F0000186EC0AF000D08E
:1027D800120002EE00F0360EEE6AE806FDE101EEA8
:1027E80000F0980EEE6AE806FDE100EE9DF0370E67
:1027F800EE6AE806FDE1336A326A000145EF04F04B
:102808000201020E01010101A36F0201000E010184
:10281800A26FAEC1A4F1AFC1A5F1B0C1A6F1B1C11B
:10282800A7F10101AFEC0BF000D012000101010E7D
:10283800000100016B6F0101360E00016A6F76C05E
:102848006CF077C06DF078C06EF079C06FF0000161
:1028580032EC0CF000D012000001000E0001000163
:102868006B6F00019E0E00016A6F76C06CF077C036
:102878006DF078C06EF079C06FF0000132EC0CF0AA
:1028880000D012000101010198517F0BD56E000E96
:10289800D76E000ED66EF2940101010198AF01D0F7
:1028A80001D002D0F28A01D0F29AD58E12000F0E12
:1028B800926E0F010F014891C29CC29EC294C186BC
:1028C800C188C18AC180C182C280C2829E9C9D8CFF
:1028D80012000001000E0C6E00019E0E0B6E17C058
:1028E8000DF018C00EF019C00FF01AC010F04EEC21
:1028F8000EF000D0120098C130F099C131F020EEEE
:1029080004F03050D9263150DA22000EDF6E120062
:10291800000EF2AE010E01010101986F0101996BE1
:1029280000D01200FA0E00F0E82EFDD701010101D7
:10293800982FF8D700D01200000EF2AE010E000159
:102948000001606F0001616B00D0120098C1D9FFCF
:1029580099C1DAFF000EDE6E000EDD6E120001C0B6
:1029680003F002C004F004C0CFFF03C0CEFF120082
:10297800CECF03F0CFCF04F003C001F004C002F0C3
:10298800120060C062F061C063F063C0D7FF62C02C
:10299800D6FF12009EC1A0F19FC1A1F11200D08EF6
:0C29A800F28EF28C1200D38E030012009D
:08FFF8008AF795FFF2F9FFF111
:00000001FF
