:0400000061EF00F0BC
:10000800FACF8BF0FBCF8CF0E9CF8DF0DBEF0AF065
:10001800D8CF1FF0E8CF20F0E0CF21F0FACF22F0C0
:10002800FBCF23F0E9CF24F0EACF25F0E1CF26F08B
:10003800E2CF27F0D9CF28F0DACF29F0F3CF2AF092
:10004800F4CF2BF0F6CF2CF0F7CF2DF0F8CF2EF021
:10005800F5CF2FF09EA001D001D004D09E90ABEC3C
:100068000EF000D09EAA01D001D004D09E9AEAECEE
:1000780008F000D02FC0F5FF2EC0F8FF2DC0F7FF05
:100088002CC0F6FF2BC0F4FF2AC0F3FF29C0DAFF0B
:1000980028C0D9FF27C0E2FF26C0E1FF25C0EAFF3C
:1000A80024C0E9FF23C0FBFF22C0FAFF21C0E0FF04
:1000B80020C0E8FF1FC0D8FF1000C6EF0EF00001F7
:1000C800806F000E000100018A6F0001805100015D
:1000D800806F000E00010001856F00018051000152
:1000E800806F000E00010001896F0001805100013E
:1000F800806F000E00010001886F0001805100012F
:10010800806F000E00010001866F00018051C6ACAF
:1001180001D001D02AD0C69C000120EE0CF00001CD
:10012800D051D9260001D151DA22050EDF6E000127
:10013800806F010E00010001866F000180510001EF
:1001480020EE0EF00001D051D9260001D151DA225B
:10015800DF2A000120EE0DF00001D051D926000160
:10016800D151DA22040EDF6E00D0C7A001D001D031
:100178000BD0C9CF87F00001806F010E000100018C
:100188008A6F0001805100D000010001866701D00C
:1001980001D051D239D238D2C7A601D001D04BD222
:1001A8008AC060F0000122EC08F0000120EE0CF09B
:1001B8000001D051D9260001D151DA22080EDF62A0
:1001C80001D001D038D20001806F000E000100017B
:1001D8008A6F000180510001806F010E000100014B
:1001E800886F0001805127D226D225D2C7A801D016
:1001F80001D040D0000120EE0BF00001D051D926EB
:100208000001D151DA22DF2A000100018A51D8B455
:1002180001D001D023D0C7BA01D001D009D0000144
:10022800806F010E00010001896F0001805116D016
:10023800000120EE0EF00001D051D9260001D15165
:10024800DA22DF2A000120EE0DF00001D051D92674
:100258000001D151DA22060EDF6E00D0000120EE37
:100268000CF00001D051D9260001D151DA22050E37
:10027800DF6EE1D1000100018A51D8B401D001D06C
:10028800DAD1000120EE0BF00001D051D92600018F
:10029800D151DA22DF2AC7BA01D001D02DD0C7B494
:1002A80001D001D00CD0000120EE0CF00001D0519B
:1002B800D9260001D151DA22070EDF6EBCD1000128
:1002C80020EE0CF00001D051D9260001D151DA22DC
:1002D800080EDF6E0001806F010E00010001886FBB
:1002E800000180510001806F000E000100018A6F3B
:1002F80000018051A0D19FD1000120EE0EF0000135
:10030800D051D9260001D151DA22DF2A000120EE8E
:100318000CF00001D051D9260001D151DA22050E86
:10032800DF6E000120EE0DF00001D051D92600014A
:10033800D151DA22060EDF6E7ED17DD17CD17BD100
:10034800000120EE1AF00001D051D9260001D15148
:10035800DA22DF500001806F000120EE19F0000161
:10036800D051D9260001D151DA22DF500001805D39
:10037800D8B001D001D032D0000120EE1AF000012F
:10038800D051D9260001D151DA22DF500001806F07
:1003980000018051010D0F0EF326000EF422F350D8
:1003A80000010001D025D96EF45000010001D121CF
:1003B800DA6EDF50C96E000120EE1AF00001D0514C
:1003C800D9260001D151DA22DF2A0001806F010EFF
:1003D80000010001856F000180512DD1000120EE40
:1003E8000CF00001D051D9260001D151DA22050EB6
:1003F800DF6E21D120D1C7A801D001D07BD0000168
:1004080020EE0BF00001D051D9260001D151DA229B
:10041800DF2A000100018A51D8B401D001D055D09B
:10042800C7AA01D001D02FD0000120EE0AF00001A8
:10043800D051D9260001D151DA22DF500001806F56
:1004480000018051010DF35000010001D025D96E43
:10045800F45000010001D121DA6E000187C0DFFFEE
:10046800000120EE0AF00001D051D9260001D15137
:10047800DA22DF2A0001806F010E00010001896F76
:10048800000180512BD0000120EE0EF00001D05168
:10049800D9260001D151DA22DF2A000120EE0DF021
:1004A8000001D051D9260001D151DA22060EDF6EA3
:1004B800000120EE0CF00001D051D9260001D151E5
:1004C800DA22050EDF6E0AD009D00001806F010E16
:1004D80000010001896F0001805100D0000120EE69
:1004E8000CF00001D051D9260001D151DA22050EB5
:1004F800DF6EA1D0000100018A51D8B401D001D02B
:100508009AD0000120EE0BF00001D051D92600014D
:10051800D151DA22DF2AC7AA01D001D027D00001A1
:1005280020EE0AF00001D051D9260001D151DA227B
:10053800DF500001806F00018051010DF350000170
:100548000001D025D96EF45000010001D121DA6EE6
:10055800000187C0DFFF000120EE0AF00001D05142
:10056800D9260001D151DA22DF2A65D0C7A401D0EB
:1005780001D024D0000120EE0CF00001D051D92682
:100588000001D151DA22080EDF6E0001806F010EE2
:1005980000010001896F000180510001806F010E88
:1005A80000010001886F000180510001806F000E7A
:1005B800000100018A6F000180513DD0000120EE4A
:1005C8000EF00001D051D9260001D151DA22DF2ADC
:1005D800000120EE0DF00001D051D9260001D151C3
:1005E800DA22060EDF6E000120EE0CF00001D05179
:1005F800D9260001D151DA22050EDF6E1CD01BD09E
:100608001AD019D018D017D0000120EE0CF0000134
:10061800D051D9260001D151DA22DF50050AD8B4C9
:10062800BBD5030AD8B4E2D5010AD8B4E4D60F0A78
:10063800D8B486D600D0000100018A6701D001D065
:1006480007D0000100018551D8B401D001D007D0EE
:10065800C6B801D001D003D0C68801D000D00001AF
:1006680020EE0AF00001D051D9260001D151DA223A
:10067800080EDF6401D001D027D00001000189678E
:1006880001D001D021D0000120EE0CF00001D051A2
:10069800D9260001D151DA22050EDF6E000120EEC5
:1006A8000EF00001D051D9260001D151DA22DF2AFB
:1006B800000120EE0DF00001D051D9260001D151E2
:1006C800DA22070EDF6E00D0000100018951D8B48C
:1006D80001D001D050D0000120EE0BF00001D05124
:1006E800D9260001D151DA22000110EE0AF00001EA
:1006F800D051E1260001D151E222E7500001806F7C
:1007080000018051010DF35000010001D025E16E78
:10071800F45000010001D121E26EDFCFE7FF0001B4
:1007280020EE0AF00001D051D9260001D151DA2279
:10073800DF500001806F0001802900010001766F01
:100748000001816F280E00010001776F00018151BF
:10075800D0C078F0D1C079F000016BEC0FF0000147
:1007680020EE0AF00001D051D9260001D151DA2239
:10077800000EDF6E5ED0000120EE0EF00001D051B9
:10078800D9260001D151DA22DF50D8B401D001D0E6
:1007980050D0000120EE0EF00001D051D926000102
:1007A800D151DA22DF5000010001826F000120EEF2
:1007B8000DF00001D051D9260001D151DA22DF50C5
:1007C80000010001836F000120EE0BF00001D05101
:1007D800D9260001D151DA22DF5000010001846FCF
:1007E8000001806F030E00010001766F0001805147
:1007F8000001816F290E00010001776F000181510E
:100808000001000E00010001796F0001820E000155
:10081800786F00016BEC0FF0000120EE0EF0000184
:10082800D051D9260001D151DA22000EDF6E01D055
:1008380000D0000100018851D8B401D001D00BD0FC
:100848006BEC0BF00001806F000E00010001886F57
:100858000001805100D01200E00ED36E9B8C020183
:10086800020E01010101A36F02011B0E0101A26F1B
:100878000101D0EC0FF00201020E01010101A36F8A
:100888000201220E0101A26F0101D8EC0CF0020155
:10089800020E01010101A36F0201190E0101A26FED
:1008A800010106EC10F035EC0CF00101C76F960E53
:1008B80001010101A26F0101C751010197EC0FF07D
:1008C8000101C76F9B0E01010101A26F0101C75110
:1008D8000101C86F000E01010101A36F0101C85198
:1008E800010134EC0EF09F909F9A9F860101C76F1B
:1008F8009E0E01010101A86F0101C75101019EEC83
:1009080009F09D860101C76F6C0E01010101A26FFC
:100918000101C751000E01010101A46F190E010167
:10092800A36F01018FEC0AF02FEC10F0ACEC0FF084
:1009380000D08FEC08F00101C76F0A0E0101010118
:10094800BA6F0101C7510201020E01010101BC6F1A
:100958000201210E0101BB6F0201020E010101011A
:10096800BE6F02010D0E0101BD6F0101DFEC0EF03B
:1009780002010201206F0201020120AF01D001D063
:1009880045D055D054D053D041D00201020E0101B8
:100998000101A36F02010B0E0101A26F0201010107
:1009A80021C2A4F101010101A56B0201020120513C
:1009B80001010101A66F0101A76B0101A6BFA707ED
:1009C8000201020E01010101A96F02010D0E0101D0
:1009D800A86F01012AEC10F02AD00DC208F227D026
:1009E8000201010118C2BFF101010101C06B02013E
:1009F800020E01010101C26F0201000E0101C16F67
:100A0800010127EC0BF013D012D011D00201020122
:100A180021510A0AD8B4B9D7220AD8B4DED7010AB4
:100A2800D8B4DBD7030AD8B4DBD701D000D0010192
:100A3800C76F0A0E01010101BA6F0101C751020116
:100A4800020E01010101BC6F0201210E0101BB6F01
:100A58000201020E01010101BE6F02010D0E01012A
:100A6800BD6F0101F7EC0EF002010201206F0201D7
:100A7800020120AF01D001D086D05BD75AD759D711
:100A880082D00201020E01010101BD6F0201190E9F
:100A98000101BC6F0201010121C2BEF10101010186
:100AA800BF6B02010201205101010101C06F010168
:100AB800C16B0101C0BFC1070201020E01010101A2
:100AC800C36F02010D0E0101C26F0101AFEC0BF003
:100AD80030D70DC210F20101C76F030E02010201E7
:100AE8000D6F0101C7510101C76F010E020102011B
:100AF8000E6F0101C7510101C76F030E010101010A
:100B0800B86F0101C7510101C86F320E010101011F
:100B1800B96F0101C8510201020E01010101BB6F49
:100B280002010D0E0101BA6F01013FEC0FF001D077
:100B380000D00201020E01010101A36F0201090E9A
:100B48000101A26F0201010121C2A4F10101010109
:100B5800A56B02010201205101010101A66F0101EB
:100B6800A76B0101A6BFA7070201020E010101013F
:100B7800A96F02010D0E0101A86F0101E9EC0DF04A
:100B8800D8D6D7D6D6D60201020121510B0AD8B43D
:100B980078D7150AD8B4CDD7010AD8B4CAD72D0A40
:100BA800D8B497D7C6D6C5D6C4D6C3D661EF00F099
:100BB800010120EE35F00101AC51D9260101AD51FA
:100BC800DA22DF5001010101B56F01010101B551C0
:100BD8000D0DF35001010101AC2501010101B86FB0
:100BE800F45001010101AD210101B96F010EB8C135
:100BF800D9FFB9C1DAFFDF6201D001D075D0010198
:100C080020EE01F00101B851D9260101B951DA22CB
:100C1800DF5001010101AE6101D001D003D0FD0E0A
:100C280066D065D0010120EE01F00101B851D92646
:100C38000101B951DA22DF500101B36F0101B3514B
:100C480001010101B66F0101B76BB1C1A2F1B2C1D7
:100C5800A3F1030E01010101B8250101B36F000ED4
:100C680001010101B9210101B46FB3C1A4F1B4C1FB
:100C7800A5F1B6C1A6F1B7C1A7F1010193EC0DF03A
:100C8800010120EE35F00101AC51D9260101AD5129
:100C9800DA22010110EE35F00101AC51E126010123
:100CA800AD51E222E7500101B36F0101B329030BF3
:100CB800DF6E010120EE02F00101B851D9260101D1
:100CC800B951DA22AFC1E1FFB0C1E2FFDFCFE7FFE0
:100CD800B8C1D9FFB9C1DAFF000EDF6E0101010109
:100CE800B65105D004D003D0FC0E01D000D01200BC
:100CF800000120EE35F000016A51D92600016B5140
:100D0800DA22DF5000010001736F00010001735106
:100D18000D0DF350000100016A2500010001766FF6
:100D2800F450000100016B210001776F010E76C0BD
:100D3800D9FF77C0DAFFDF6201D001D075D000019A
:100D480020EE01F000017651D92600017751DA2210
:100D5800DF50000100016C6101D001D003D0FD0E0D
:100D680066D065D0000120EE01F000017651D92649
:100D780000017751DA22DF500001716F00017151D3
:100D880000010001746F0001756B6FC060F070C0E6
:100D980061F0030E0001000176250001716F000E5D
:100DA8000001000177210001726F71C062F072C00A
:100DB80063F074C064F075C065F00001BEEC0DF01E
:100DC800000120EE35F000016A51D92600016B516F
:100DD800DA22000110EE35F000016A51E126000127
:100DE8006B51E222E7500001716F00017129030B7A
:100DF800DF6E000120EE02F000017651D9260001D5
:100E08007751DA226DC0E1FF6EC0E2FFDFCFE7FF66
:100E180076C0D9FF77C0DAFF000EDF6E000100014F
:100E2800745105D004D003D0FC0E01D000D01200BC
:100E380001010101AEC1B3F101010101B46B01016E
:100E480020EE34F00101AC51D9260101AD51DA226E
:100E5800DF5001010101B56F01010101B5510D0D0F
:100E6800F35001010101AC2501010101B66FF450F5
:100E780001010101AD210101B76FB6C1D9FFB7C1A9
:100E8800DAFFDF50D8B401D001D003D0FF0E52D022
:100E980051D0010120EE01F00101B651D92601011E
:100EA800B751DA220101AEC1DFFF010120EE02F0E5
:100EB8000101B651D9260101B751DA220101AFC1AA
:100EC800DFFF030E01010101B62501010101A26F37
:100ED800000E01010101B7210101A36FB0C1A4F106
:100EE800B1C1A5F1B3C1A6F1B4C1A7F1010193EC59
:100EF8000DF0010120EE34F00101AC51D9260101B9
:100F0800AD51DA22010110EE34F00101AC51E126B5
:100F18000101AD51E222E7500101B26F0101B2298E
:100F2800030BDF6EB6C1D9FFB7C1DAFF010EDF6E62
:100F3800010E00D01200000100016CC071F0000128
:100F48000001726B000120EE34F000016A51D926CD
:100F580000016B51DA22DF5000010001736F0001BC
:100F6800000173510D0DF350000100016A250001C5
:100F78000001746FF450000100016B210001756FCE
:100F880074C0D9FF75C0DAFFDF50D8B401D001D0E2
:100F980003D0FF0E52D051D0000120EE01F0000125
:100FA8007451D92600017551DA2200016CC0DFFFA7
:100FB800000120EE02F000017451D926000175519C
:100FC800DA2200016DC0DFFF030E00010001742565
:100FD80000010001606F000E000100017521000191
:100FE800616F6EC062F06FC063F071C064F072C070
:100FF80065F00001BEEC0DF0000120EE34F00001B8
:101008006A51D92600016B51DA22000110EE34F042
:1010180000016A51E12600016B51E222E75000010C
:10102800706F00017029030BDF6E74C0D9FF75C0A3
:10103800DAFF010EDF6E010E00D01200000120EE73
:101048000BF00001D051D9260001D151DA22010E4E
:10105800DF6E000120EE0AF00001D051D926000110
:10106800D151DA22000EDF6E000100016051D8B4C0
:1010780001D001D043D0C7AA01D001D021D00001AE
:1010880020EE0CF00001D051D9260001D151DA220E
:10109800050EDF6E000120EE0EF00001D051D926BA
:1010A8000001D151DA22DF2A000120EE0DF0000103
:1010B800D051D9260001D151DA22050EDF6E2AD08F
:1010C800C7A401D001D00CD0000120EE0CF0000123
:1010D800D051D9260001D151DA22080EDF6E1AD07C
:1010E800000120EE0CF00001D051D9260001D151A9
:1010F800DA22070EDF6E0ED00DD00CD0000120EEE4
:101108000CF00001D051D9260001D151DA22060E87
:10111800DF6E00D01200010167EC0DF00101010142
:10112800A7510101A611D8A401D001D002D04DD0F9
:101138004CD00101A86F010E00010001996F010157
:10114800A85100D00101010E01010101A36F0101A5
:101158006C0E0101A26F010157EC0EF00009D8B422
:1011680001D001D00AD00101A86F000E00010001D2
:10117800996F0101A85129D028D00001000E010162
:101188000101A36F00019A0E0101A26F010157EC42
:101198000EF00009D8B401D001D00AD00101A86F1F
:1011A800000E00010001996F0101A8510ED00DD069
:1011B8000101A86F0A0E01010101A26F0101A851E6
:1011C8000101F2EC0FF0BED7BDD712009EAA01D0E4
:1011D80001D041D020EE04F03050D9263150DA2227
:1011E800DF501B6E1B50010DF3503024D96EF450A4
:1011F8003120DA6E73EC0EF0DF6E20EE04F0305022
:10120800D9263150DA22DF2A20EE04F03050D926D0
:101218003150DA22040EDF6201D001D01CD020EE5A
:1012280004F03050D9263150DA22DF50176E1B6E89
:101238001F0E186E1B5030C019F031C01AF0BEECEA
:101248000FF020EE04F03050D9263150DA22000E8B
:10125800DF6E01D000D032A601D001D011D0AC98F9
:10126800AC881B6E000E176E1B501C6E1E0E186E7F
:101278001C50000E1A6E000E196EBEEC0FF000D056
:1012880012000DC012F0136A20EE34F00B50D9266C
:101298000C50DA22DF50146E14500D0DF3500B244D
:1012A800156EF4500C20166E15C0D9FF16C0DAFF63
:1012B800DF50D8B401D001D003D0FF0E3AD039D0D6
:1012C80020EE01F01550D9261650DA220DC0DFFFA6
:1012D80020EE02F01550D9261650DA220EC0DFFF94
:1012E800030E1524016E000E1620026E0FC003F0C7
:1012F80010C004F012C005F013C006F010EC0EF098
:1013080020EE34F00B50D9260C50DA2210EE34F0CF
:101318000B50E1260C50E222E750116E1128030B06
:10132800DF6E15C0D9FF16C0DAFF010EDF6E010EA1
:1013380000D012008188818AA8C1C8FF000EC76E3C
:10134800000EC66E000EC56E0E0EC612C78E8188C0
:10135800818AC580C68A000E01010101AA6F000EAC
:101368000101A96F01010101AA51800A800F040E31
:10137800D8B4A95DD8A001D001D002D02ED02DD0EC
:10138800A9C1A2F1AAC1A3F1000E01010101A56F33
:101398000B0E0101A46F0101A4EC0CF002013E0E3A
:1013A80001010101A225D96E0201020E010101010C
:1013B800A321DA6E000EDF6E01010101A94BAA2BF1
:1013C80001010101AA51800A800F040ED8B4A95D59
:1013D800D8A001D001D0D4D700D01200010101015A
:1013E800A551A411D8B401D001D043D00101A66FF2
:1013F800010E01010101A76F0101A6510AD00101E7
:1014080001010101D890A437A53701010101A72BDB
:1014180000D001010101A5AF01D001D0F0D701D062
:1014280000D001010101A45101010101A25D0101E6
:101438000101A55101010101A359D8A001D001D092
:101448000DD001010101A45101010101A25F0101B7
:101458000101A55101010101A35B00D001010101B6
:101468000101D890A533A43301010101A72FD9D7D1
:1014780000D0A2C1A2F1A3C1A3F112000001000192
:10148800996701D001D002D045D044D0000138EC92
:101498000DF000010001635100016211D8B401D0C0
:1014A80001D002D037D036D00001FCEC0FF000019B
:1014B8000001615100016011D8A401D001D002D00F
:1014C80029D028D00101010E00010001616F01013E
:1014D8006C0E0001606F00018FEC0EF00009D8B4AB
:1014E80001D001D002D016D015D00001000E0001A5
:1014F8000001616F00019A0E0001606F00018FEC1E
:101508000EF00009D8B401D001D002D003D002D027
:1015180033EC10F01200000EAD6E000EAC6E01013F
:101528000101A2A101D001D001D0AD8801010101C2
:10153800A2A301D001D002D0AD8CAC8C0101010175
:10154800A2A501D001D001D0AD8E01010101A2A751
:1015580001D001D002D0AC8801D0AC8A01010101D0
:10156800A2A901D001D001D0AD8401010101A2AB33
:1015780001D001D001D0AC8601010101A2AD01D09A
:1015880001D002D09D8A01D09D9A01010101A2AF2C
:1015980001D001D002D09D8801D09D98A3C1B0FF91
:1015A80001010101A4517F6EAD8AAC8E1200EACF11
:1015B8008EF0E1CF8FF0E2CF90F0D9CF91F0DACF73
:1015C80092F0F3CF93F0F4CF94F0F6CF95F0F7CFF5
:1015D80096F0F8CF97F0F5CF98F09EA601D001D0FD
:1015E80004D09E9663EC00F000D0F2A401D001D0A4
:1015F80004D0F294DDEC0FF000D09EAC01D001D005
:1016080003D06EEC0CF000D042EC0AF098C0F5FF65
:1016180097C0F8FF96C0F7FF95C0F6FF94C0F4FF97
:1016280093C0F3FF92C0DAFF91C0D9FF90C0E2FFE8
:101638008FC0E1FF8EC0EAFF8DC0E9FF8CC0FBFFC1
:101648008BC0FAFF11000101C36F0A0E01010101ED
:10165800BA6F0101C35101010101C5C1BBF101010B
:101668000101BC6B0F0E00010001D0250101010131
:10167800BD6F000E00010001D1210101BE6F010103
:101688000FEC0FF00101C46F000120EE19F000010A
:10169800D051D9260001D151DA22C4C1DFFF00019F
:1016A80020EE1AF00001D051D9260001D151DA22DA
:1016B800010EDF6E000120EE0FF00001D051D92697
:1016C8000001D151DA22DF50C96EC688120000012C
:1016D8007D6F0A0E00010001786F00017D51000145
:1016E80000017FC079F0000100017A6B0F0E000144
:1016F8000001D025000100017B6F000E00010001F0
:10170800D12100017C6F000127EC0FF000017E6FF2
:10171800000120EE19F00001D051D9260001D15165
:10172800DA227EC0DFFF000120EE1AF00001D0515E
:10173800D9260001D151DA22010EDF6E000120EE18
:101748000FF00001D051D9260001D151DA22DF5023
:10175800C96EC6881200BCC1D9FFBDC1DAFFDE2A36
:10176800000EDD22BCC1D9FFBDC1DAFF0101DECF09
:10177800A2F10101DDCFA3F1000E01010101A56F66
:101788000A0E0101A46F0101F2EC09F00101010147
:10179800A251090A0101A311D8A401D001D01DD07A
:1017A8000101C46F020E01010101B86F0101C451AA
:1017B8000101C56F140E01010101B96F0101C55185
:1017C800BCC1BAF1BDC1BBF1010155EC0FF001017B
:1017D8000101C66F02D001D000D01200010120EE35
:1017E80034F00101A251D9260101A351DA22000ED9
:1017F800DF6E010120EE35F00101A251D926010169
:10180800A351DA22000EDF6E0101A46F000E010160
:101818000101A56F0101A451030E01010101A56594
:1018280001D001D002D01CD01BD001010101A5516B
:101838000D0DF35001010101A225D96EF4500101EB
:101848000101A321DA6E000EDF6E01010101A52B53
:10185800030E01010101A56501D001D0E6D700D032
:1018680012000101A66F000E00010001996F01012D
:10187800A6510001000E01010101A36F00019A0E9B
:101888000101A26F0101F2EC0BF00101010E01014F
:101898000101A36F01016C0E0101A26F0101F2ECBD
:1018A8000BF00101010E01010101A36F0101360EC8
:1018B8000101A26F0101F2EC0BF00101010E01011F
:1018C8000101A36F0101000E0101A26F0101F2ECF9
:1018D8000BF01200C350C4CF7AF000017B6B7AC0C2
:1018E8007BF000017A6B00017A11000100017C6F26
:1018F80000017B5100017D6F000100017D51000155
:1019080000017E6F00017A6F010E00010001766F01
:1019180000017A5100017B6F320E00010001776FE0
:1019280000017B510001000E00010001796F0001E8
:101938007E0E0001786F000181EC0FF09E9C120072
:10194800000E01010101A76F000E0101A66F00D072
:1019580001010101A2A101D001D00DD001010101B5
:10196800A45101010101A62701010101A5510101AD
:101978000101A72300D0010101010101D890A4377A
:10198800A537010101010101D890A333A233010158
:101998000101A351A211D8A401D001D0D9D7A6C161
:1019A800A2F1A7C1A3F11200A2C1D0F0A3C1D1F046
:1019B800000120EE0AF00001D051D9260001D151D2
:1019C800DA22000EDF6E000120EE0BF00001D0518C
:1019D800D9260001D151DA22000EDF6E000120EE77
:1019E8000CF00001D051D9260001D151DA22050EA0
:1019F800DF6E000120EE0EF00001D051D926000163
:101A0800D151DA22000EDF6E1200F2AC01D001D003
:101A18000AD0000E01010101A56F000E0101A46F9B
:101A280022D021D020D00101E8EC0FF00101010102
:101A3800A3510101A211D8B401D001D00AD0000EDF
:101A480001010101A56F000E0101A46F0CD00BD09C
:101A58000AD0000E01010101A56F010E0101A46F5A
:101A680002D001D000D01200F2AC01D001D00AD0CF
:101A7800000E00010001636F000E0001626F22D0AA
:101A880021D020D00001FCEC0FF0000100016151D1
:101A980000016011D8B401D001D00AD0000E0001B5
:101AA8000001636F000E0001626F0CD00BD00AD0EA
:101AB800000E00010001636F010E0001626F02D089
:101AC80001D000D01200010109EC0DF00101010163
:101AD800A5510101A411D8A401D001D016D001014B
:101AE800E8EC0FF001010101A3510101A211D8A4F2
:101AF80001D001D00AD0000E01010101A76F010E2B
:101B08000101A66F0BD00AD009D0000E0101010116
:101B1800A76F000E0101A66F01D000D01200A4C16A
:101B2800AAF1A5C1ABF1A2C1A8F1A3C1A9F113D033
:101B3800AAC1D9FFABC1DAFFA8C1E1FFA9C1E2FF81
:101B4800DFCFE7FF01010101AA4BAB2B0101010126
:101B5800A84BA92B00D001010101A607D8A0A7070F
:101B68000101A629D8B4A729D8A401D001D0E0D76B
:101B780000D0120062C068F063C069F060C066F00F
:101B880061C067F013D068C0D9FF69C0DAFF66C0CA
:101B9800E1FF67C0E2FFDFCFE7FF00010001684B0C
:101BA800692B00010001664B672B00D00001000182
:101BB8006407D8A0650700016429D8B46529D8A4AA
:101BC80001D001D0E0D700D0120001010101A451D9
:101BD8001E0AA511D8A401D001D002D01CD01BD058
:101BE80001010101A4511F0AA511D8A401D001D0F7
:101BF80012D001010101A65101010101A825D96EE8
:101C080001010101A75101010101A921DA6E000EAC
:101C1800DF6E01D000D0120003C009F004C00AF042
:101C280001C007F002C008F00FD009C0D9FF0AC0F0
:101C3800DAFF07C0E1FF08C0E2FFDFCFE7FF094A8C
:101C48000A2A074A082A00D00506D8A00606052849
:101C5800D8B40628D8A401D001D0E7D700D0120004
:101C680001010101A351F30B9A6EA2C1A4F17F0EE9
:101C78000101A4170101D890A435CD6E000ECF6ED6
:101C8800000ECE6E9E9001010101A2AF01D001D0DD
:101C980002D09D8001D09D909AAE01D001D001D094
:101CA8009A86CD801200010120EE35F00101A25183
:101CB800D9260101A351DA22DF500101A46F0101E5
:101CC800A4510D0DF35001010101A225D96EF45064
:101CD80001010101A321DA6EDF5000D01200F20EDB
:101CE8003216ACAC01D001D007D03290ACA001D0F4
:101CF80001D002D0328000D0ACA401D001D001D0F4
:101D08003284ACA201D001D001D03286AFCF01F02D
:101D1800015000D01200000120EE35F000016051A2
:101D2800D92600016151DA22DF500001626F0001FB
:101D380062510D0DF350000100016025D96EF45079
:101D4800000100016121DA6EDF5000D0120018ECAA
:101D580010F001C01DF002C01EF01B6E000E176EC1
:101D68001B501C6E0B0E186E1C50000E1A6E000EC7
:101D7800196EBEEC0FF0000E026E000E016E0FEC35
:101D880010F0120002EE3EF02C0EEE6AE806FDE1BD
:101D980001EE00F0A20EEE6AE806FDE100EE99F011
:101DA800370EEE6AE806FDE1336A326A000EF86E15
:101DB800000130EF04F00101010E01010101AD6FD6
:101DC80001016C0E0101AC6FBAC1AEF1BBC1AFF13C
:101DD800BCC1B0F1BDC1B1F1BEC1B2F10101DCECD1
:101DE80005F000D012000001000E01010101AD6FE5
:101DF80000019A0E0101AC6FBAC1AEF1BBC1AFF1DF
:101E0800BCC1B0F1BDC1B1F1BEC1B2F10101DCECA0
:101E180005F000D012000101010E01010101AD6FB2
:101E28000101360E0101AC6FBAC1AEF1BBC1AFF111
:101E3800BCC1B0F1BDC1B1F1BEC1B2F10101DCEC70
:101E480005F000D012000101010E000100016B6FC6
:101E58000101360E00016A6F78C06CF079C06DF030
:101E68007AC06EF07BC06FF07CC070F000017CEC33
:101E780006F000D012000101010E01010101AD6F51
:101E88000101360E0101AC6FB8C1AEF1B9C1AFF1B5
:101E9800BAC1B0F1BBC1B1F101011CEC07F000D02F
:101EA80012000101010E01010101AD6F0101000ED7
:101EB8000101AC6FB8C1AEF1B9C1AFF1BAC1B0F1AF
:101EC800BBC1B1F101011CEC07F000D01200010107
:101ED800010E000100016B6F01016C0E00016A6FB9
:101EE80076C06CF077C06DF078C06EF079C06FF096
:101EF80000019FEC07F000D012000001000E000165
:101F080000016B6F00019A0E00016A6F76C06CF0D9
:101F180077C06DF078C06EF079C06FF000019FEC6B
:101F280007F000D0120001010101A2517F0BD56E0C
:101F3800000ED76E000ED66EF29401010101A2AF19
:101F480001D001D002D0F28A01D0F29AD58E1200C7
:101F58000F0E926E0F010F014891C29CC29EC2944F
:101F6800C186C188C18AC180C182C280C2829E9C4A
:101F78009D8C12000001000E0C6E00019A0E0B6E73
:101F880017C00DF018C00EF019C00FF01AC010F0ED
:101F980045EC09F000D01200A2C130F0A3C131F025
:101FA80020EE04F03050D9263150DA22000EDF6ED0
:101FB8001200000E00010001616F000E0001606F49
:101FC800000121EC10F01200000EF2AE010E01012A
:101FD8000101A26F0101A36B00D01200FA0E00F0FC
:101FE800E82EFDD701010101A22FF8D700D0120079
:101FF800000EF2AE010E00010001606F0001616B7E
:1020080000D01200A2C1D9FFA3C1DAFF000EDE6E14
:10201800000EDD6E120001C003F002C004F004C01F
:10202800CFFF03C0CEFF1200CECF03F0CFCF04F016
:1020380003C001F004C002F0120060C062F061C089
:1020480063F063C0D7FF62C0D6FF1200A8C1AAF12F
:10205800A9C1ABF11200D08EF28EF28C1200D38E91
:04206800030012005F
:08FFF8008AF795FFF2F9FFF111
:00000001FF
